:100000000C94DF000C9407010C9407010C94070179
:100010000C9407010C9407010C9407010C94070140
:100020000C9407010C9407010C9407010C94070130
:100030000C9407010C9407010C9407010C94070120
:100040000C9414070C9407010C9484070C945E071D
:100050000C9407010C9407010C9407010C94070100
:100060000C9407010C94070100407A10F35A00A089
:10007000724E18090010A5D4E80000E87648170071
:1000800000E40B54020000CA9A3B000000E1F505B1
:10009000000080969800000040420F000000A086FB
:1000A00001000000102700000000E803000000002D
:1000B0006400000000000A000000000001000000D1
:1000C00000002C76D888DC674F0823DFC1DFAE59EB
:1000D000E1B1B796E5E3E453C63AE651997696E87E
:1000E000E6C28426EB898C9B62ED407C6FFCEFBC02
:1000F0009C9F40F2BAA56FA5F490055A2AF75C932D
:100100006B6CF9676DC11BFCE0E40D47FEF520E662
:10011000B500D0ED902E0300943577050080841E45
:10012000080000204E0A000000C80C333333330FA0
:10013000986E12831141EF8D2114893BE65516CF3D
:10014000FEE6DB18D1844B381BF77C1D901DA4BB49
:10015000E424203284725E228100C9F124ECA1E5FE
:100160003D2700000000240027002A0000000000B6
:10017000250028002B0000000008000201000003F9
:100180000407000000000000000000000000230041
:1001900026002900040404040404040402020202E8
:1001A000020203030303030301020408102040803A
:1001B000010204081020010204081020B6071124CF
:1001C0001FBECFEFD8E0DEBFCDBF22E0A8E2B2E095
:1001D00001C01D92AC3FB207E1F712E0A0E0B1E030
:1001E000EEEDF3E202C005900D92A832B107D9F707
:1001F00010E0CFEDD0E004C02197FE010E94790FFE
:10020000CE3DD107C9F70E9475080C94ED110C94EE
:100210000000CF92DF92EF92FF92CF93DF93B091E5
:10022000EC02A0E08111AB2F8091ED0290E0880FED
:10023000991FAC0146575E4FC090F202D090F30276
:10024000E090F402F090F50230E020E0FA01C59170
:10025000D491E881B90190E080E0EB23EA130AC071
:100260002F5F3F4F6C157D058E059F0578F36FEF6F
:100270007FEFCB01DF91CF91FF90EF90DF90CF9098
:100280000895833081F028F4813099F08230A9F00C
:1002900008958730A9F08830C9F08430B1F4809196
:1002A00080008F7D03C0809180008F7780938000D5
:1002B000089584B58F7784BD089584B58F7DFBCF75
:1002C0008091B0008F778093B00008958091B00046
:1002D0008F7DF9CF1F93CF93DF93282F30E0F90163
:1002E000EA58FE4F8491F901E855FE4FD491F90187
:1002F000EC56FE4FC491CC23A9F0162F81110E9419
:100300004101EC2FF0E0EE0FFF1FE459FE4FA591E5
:10031000B4918FB7F894EC91111108C0D095DE23F9
:10032000DC938FBFDF91CF911F910895DE2BF8CF23
:10033000CF93DF9390E0FC01E855FE4F24918C565B
:100340009E4FFC0184918823C9F090E0880F991F8B
:10035000FC01EE59FE4FA591B491FC01E459FE4F0A
:10036000C591D49161110DC09FB7F8948C912095DF
:1003700082238C938881282328839FBFDF91CF918C
:100380000895623051F49FB7F8943C91822F809584
:1003900083238C93E8812E2BEFCF8FB7F894EC91C9
:1003A0002E2B2C938FBFEACF3FB7F8948091290270
:1003B00090912A02A0912B02B0912C0226B5A89B05
:1003C00005C02F3F19F00196A11DB11D3FBFBA2FE7
:1003D000A92F982F8827BC01CD01620F711D811DA7
:1003E000911D42E0660F771F881F991F4A95D1F72C
:1003F00008958F929F92AF92BF92CF92DF92EF9229
:10040000FF924B015C010E94D4016B017C010E94B0
:10041000D4016C197D098E099F09683E73408105DE
:100420009105A8F321E0821A9108A108B10888EE8D
:10043000C80E83E0D81EE11CF11C81149104A104B4
:10044000B10429F7FF90EF90DF90CF90BF90AF906D
:100450009F908F900895CF92DF92EF92FF920F932B
:100460001F93CF93DF93CDB7DEB7C054D1400FB603
:10047000F894DEBF0FBECDBF2FB7F89480912D0248
:1004800090912E02A0912F02B09130022FBF409187
:10049000EE025091EF026091F0027091F1028C0136
:1004A0009D01041B150B260B370BB901A801403D1C
:1004B00057406105710590F48091F602C05CDE4FF3
:1004C0000FB6F894DEBF0FBECDBFDF91CF911F9165
:1004D0000F91FF90EF90DF90CF9008958093EE0200
:1004E0009093EF02A093F002B093F1021092E90210
:1004F0001092E8021092E7021092E6021092E502D2
:1005000062E08091EA020E94980161E070E080E080
:1005100090E00E94F90161E08091EA020E94980156
:1005200060E08091EA020E946A018091EB028551AD
:10053000823020F58BE291E10197F1F762E0809142
:10054000EA020E9498018091F70290E082309105C2
:1005500038F0880F991F880F991F05970197F1F7B9
:10056000F89480E00E9409016F3F7F4F8F4F9F4FAB
:1005700061F41092F602789480E0A0CF64E170E01C
:1005800080E090E00E94F901D9CF81E00E9409014A
:100590006F3F7F4F8F4F9F4F61F38E010F5F1F4F54
:1005A0006E018FEBC81A8EEFD80A780180E00E94A6
:1005B0000901F701608371838283938381E00E9444
:1005C0000901F7016483758386839783F8E0EF0E52
:1005D000F11CEC14FD0451F7789430E020E0F801B0
:1005E000C080D180E280F38044815581668177812B
:1005F000FFEFCF16DF06EF06FF0631F04F3F8FEF1C
:1006000058076807780719F41092F602B5CFF90178
:1006100083E0F595E7958A95E1F7EB51FD4F8081F1
:10062000880FC416D506E606F70610F180832F5F03
:100630003F4F085F1F4F2832310589F64091E9028C
:100640002091E5028091E602280F3327331F809125
:10065000E702280F311D8091E802820F932F911D30
:1006600099274817190681F681E08093F60226CF74
:100670008160DCCFAF92BF92CF92DF92EF92FF9278
:100680000F931F93CF93DF936C017B018B01040FBA
:10069000151FEB015E01AE18BF08C017D10759F056
:1006A0006991D601ED91FC910190F081E02DC60198
:1006B0000995892B79F7C501DF91CF911F910F9192
:1006C000FF90EF90DF90CF90BF90AF900895FC0126
:1006D000538D448D252F30E0842F90E0821B930BA7
:1006E000541710F0CF96089501970895FC01918D4D
:1006F000828D981761F0A28DAE0FBF2FB11D5D9650
:100700008C91928D9F5F9F73928F90E008958FEFF1
:100710009FEF0895FC01918D828D981731F0828DA5
:10072000E80FF11D858D90E008958FEF9FEF0895FC
:10073000FC01918D228D892F90E0805C9F4F821B60
:1007400091098F739927089581E392E00E9498039D
:1007500021E0892B09F420E0822F089580E090E0C9
:10076000892B29F00E94A40381110C9400000895A4
:10077000FC01A48DA80FB92FB11DA35ABF4F2C9116
:10078000848D90E001968F739927848FA689B7890D
:100790002C93A089B1898C91837080648C93938D04
:1007A000848D981306C00288F389E02D80818F7DA7
:1007B00080830895EF92FF920F931F93CF93DF935F
:1007C000EC0181E0888F9B8D8C8D98131AC0E8898D
:1007D000F989808185FF15C09FB7F894EE89FF895C
:1007E0006083E889F98980818370806480839FBFFA
:1007F00081E090E0DF91CF911F910F91FF90EF90FA
:100800000895F62E0B8D10E00F5F1F4F0F73112709
:10081000E02E8C8D8E110CC00FB607FCFACFE88944
:10082000F989808185FFF5CFCE010E94B803F1CF11
:10083000EB8DEC0FFD2FF11DE35AFF4FF0829FB7B8
:10084000F8940B8FEA89FB8980818062CFCFCF93A8
:10085000DF93EC01888D8823B9F0AA89BB89E889E8
:10086000F9898C9185FD03C0808186FD0DC00FB68E
:1008700007FCF7CF8C9185FFF2CF808185FFEDCF0C
:10088000CE010E94B803E9CFDF91CF910895BF92C6
:10089000CF92DF92EF92FF920F931F93CF93DF934C
:1008A0008C01B42E6C018EE0C80ED11CD0E0C0E0EB
:1008B000E62EF12CB7010C2E02C0759567950A94AF
:1008C000E2F76170F60181916F010E946A01219641
:1008D000CB1580F361E0F80185850E946A0160E034
:1008E000F8018585DF91CF911F910F91FF90EF90D7
:1008F000DF90CF90BF900C946A01FC0186898F3FF6
:1009000071F021853285662329F0232B31F461E0D3
:100910000C946A0121303105D1F360E0F9CF0895DC
:10092000EF92FF921F93CF93DF93EC01162F7A0182
:1009300061E0812F0E9498011E8BFA86E986E8818A
:10094000F9810484F585E02D60E0CE01DF91CF913F
:100950001F91FF90EF9009940F931F93CF93DF9314
:10096000EC01162F042F61E0413009F060E08B8527
:100970000E946A018C858F3F19F060E00E946A0135
:10098000023079F08C8148E084FD0CC0612F70E06A
:1009900084E0759567958A95E1F744E0CE010E9461
:1009A000470444E0612FCE01DF91CF911F910F9159
:1009B0000C944704DC01ED91FC910684F785E02D51
:1009C00041E0099581E090E00895DC01ED91FC9112
:1009D0000684F785E02D40E009940F931F93CF9391
:1009E000DF93CDB7DEB728970FB6F894DEBF0FBE02
:1009F000CDBF0091060110910701209108013091AF
:100A000009010D831E832F83388700910A011091FD
:100A10000B0120910C0130910D0109831A832B8366
:100A20003C839091D502691710F06FEF690F262F64
:100A300030E04091D6022C0F3D1FF901403199F46E
:100A4000943089F46181680F60688EEC92E028969A
:100A50000FB6F894DEBF0FBECDBFDF91CF911F91CF
:100A60000F910C94E5046581EECF61E00E94E504EE
:100A70008BE39FE10197F1F708950F931F93CF93B5
:100A8000DF93EC01423018F08C8188608C834F83B7
:100A90006887222329F0413019F48C8184608C838B
:100AA00064E670E080E090E00E94F9016C8164FDF2
:100AB00057C0E881F9810684F785E02D42E063E0C4
:100AC000CE0109958BE496E40197F1F7E881F9816D
:100AD0000684F785E02D42E063E0CE01099503E549
:100AE00012E0C8010197F1F7E881F9810684F785E2
:100AF000E02D42E063E0CE010995C8010197F1F7CE
:100B0000E881F9810684F785E02D42E062E0CE01BC
:100B10000995C8010197F1F76C816062CE010E94CE
:100B2000E5048BEE90E00197F1F784E08D836CE0B3
:100B3000CE010E94E504CE010E94350582E08E833D
:100B400066E0CE010E94E504E881F9810484F58520
:100B5000E02D6FEFCE01DF91CF911F910F9109949E
:100B60006062CE010E94E5048BE496E40197F1F700
:100B70006C816062CE010E94E50403E512E0C801C9
:100B80000197F1F76C816062CE010E94E504C1CF4C
:100B900008950895089590E080E00895FB01019084
:100BA0000020E9F73197AF01461B570BDC01ED91AF
:100BB000FC910280F381E02D0994CF93DF93FC0137
:100BC000448155816081718181E392E00E943A0302
:100BD000EC0164E371E081E392E00E94CE058C0FAA
:100BE0009D1FDF91CF910895CF93DF93BC0181E3E7
:100BF00092E00E94CE05EC0164E371E081E392E0B3
:100C00000E94CE058C0F9D1FDF91CF9108950E9409
:100C1000D8110F931F93CF93DF93EC0188819981B3
:100C2000009759F02A813B812617370730F081E081
:100C3000DF91CF911F910F9108958B016F5F7F4FCF
:100C40000E941B11009759F0998388831B830A83A4
:100C50002C813D81232B59F7FC011082E8CF80E0E5
:100C6000E7CFEF92FF920F931F93CF93DF9361151E
:100C7000710541F480E0DF91CF911F910F91FF90BA
:100C8000EF90089541155105B1F07B01EC010C8105
:100C90001D81040F151FB8010E940906882351F316
:100CA000288139818C819D81B701820F931F0E9419
:100CB000E6111D830C8381E0DECFCF93DF93EC013F
:100CC00088819981009711F00E94921019821882F0
:100CD0001D821C821B821A82DF91CF910895CF93CF
:100CE000DF93EC01FB0144815581608171810E9499
:100CF0003106811103C0CE010E945D06CE01DF9155
:100D0000CF910895EF92FF920F931F93CF93DF93AC
:100D1000EC017B018A01BA010E94090681110BC016
:100D2000CE010E945D06CE01DF91CF911F910F9100
:100D3000FF90EF9008951D830C83B70188819981FE
:100D40000E94E611F0CFEF92FF920F931F93CF9383
:100D5000DF93CDB7DEB7A1970FB6F894DEBF0FBE15
:100D6000CDBF7C01CB01BA01F70111821082138241
:100D70001282158214828E010F5F1F4F22E044E021
:100D80000E94C90B0097C9F0FC0101900020E9F70F
:100D90003197AF01481B590BBC01C7010E94820665
:100DA000A1960FB6F894DEBF0FBECDBFDF91CF91F5
:100DB0001F910F91FF90EF900895C7010E945D066B
:100DC000EFCFFB01DC0111961C921E9213961C9230
:100DD0001E92129715961C921E92149786179707CB
:100DE00049F0608171816115710521F0448155815F
:100DF0000C9482060895FC011182108213821282E3
:100E000015821482FB0101900020E9F73197AF01B0
:100E1000461B570B0C948206FC0180819181009740
:100E200011F00C94921008951F920F920FB60F922A
:100E300011242F933F938F939F93AF93BF938091F0
:100E40002D0290912E02A0912F02B091300230918C
:100E5000280223E0230F2D3758F50196A11DB11D5F
:100E60002093280280932D0290932E02A0932F02AC
:100E7000B09330028091290290912A02A0912B0216
:100E8000B0912C020196A11DB11D8093290290936F
:100E90002A02A0932B02B0932C02BF91AF919F9195
:100EA0008F913F912F910F900FBE0F901F9018952B
:100EB00026E8230F0296A11DB11DD2CF1F920F92DB
:100EC0000FB60F9211242F933F934F935F936F931D
:100ED0007F938F939F93AF93BF93EF93FF9381E3A0
:100EE00092E00E94B803FF91EF91BF91AF919F9163
:100EF0008F917F916F915F914F913F912F910F90C3
:100F00000FBE0F901F9018951F920F920FB60F9261
:100F100011242F938F939F93EF93FF93E0914102BE
:100F2000F09142028081E0914702F091480282FDF7
:100F30001BC0908180914A028F5F8F7320914B027A
:100F4000821741F0E0914A02F0E0EF5CFD4F958F8F
:100F500080934A02FF91EF919F918F912F910F9073
:100F60000FBE0F901F9018958081F4CFCF93DF9321
:100F7000109234021092330288EE93E0A0E0B0E0C9
:100F80008093350290933602A0933702B0933802D3
:100F900082E191E0909332028093310285EC90E0FF
:100FA00090933E0280933D0284EC90E09093400247
:100FB00080933F0280EC90E0909342028093410244
:100FC00081EC90E0909344028093430282EC90E0A5
:100FD000909346028093450286EC90E090934802FD
:100FE0008093470210924A0210924B0210924C02D8
:100FF00010924D0282E08093EA028BE08093EB0234
:10100000EAEAF1E0E491E093EC02E6E9F1E0E49150
:10101000E093ED0280E89EE3A0E0B0E08093F2026E
:101020009093F302A093F402B093F5021092D102D0
:101030001092D00284E291E09093CF028093CE028E
:1010400083E18093D9028FEF8093DA0282E180936B
:10105000DB0281E18093DC0280E18093DD028FE09E
:101060008093DE028EE08093DF021092E002109205
:10107000E1021092E2021092E302CCEDD2E061E0D4
:1010800089910E94980182E0C03ED807C1F761E0D3
:101090008091D9020E9498018091DA028F3F19F065
:1010A00061E00E94980161E08091DB020E9498015A
:1010B0001092D20260E08091D9020E946A0160E041
:1010C0008091DB020E946A018091DA028F3F19F061
:1010D00060E00E946A018FEF8093E4021092D802D0
:1010E0001092D702DF91CF910895CF93DF93CDB7C0
:1010F000DEB768970FB6F894DEBF0FBECDBF789409
:1011000084B5826084BD84B5816084BD85B582600C
:1011100085BD85B5816085BD80916E0081608093BD
:101120006E00109281008091810082608093810026
:101130008091810081608093810080918000816036
:10114000809380008091B10084608093B100809191
:10115000B00081608093B00080917A0084608093B9
:101160007A0080917A00826080937A0080917A0080
:10117000816080937A0080917A00806880937A0001
:101180001092C10062E08091EA020E9498012FB79C
:10119000F89480912D0290912E02A0912F02B0918F
:1011A00030022FBF805D9740A109B1098093EE0204
:1011B0009093EF02A093F002B093F10287E3809343
:1011C000F70220E042E060E18EEC92E00E943D05F3
:1011D0006FEF8EEC92E00E947D0460E083E00E945D
:1011E000980161E084E00E94980161E085E00E943E
:1011F000980161E086E00E94980161E087E00E942A
:10120000980161E088E00E949801E0914102F0912C
:10121000420282E08083E0913D02F0913E02108222
:10122000E0913F02F09140028FEC808310924902DE
:10123000E0914502F091460286E08083E09143020E
:10124000F0914402808180618083E0914302F091BB
:101250004402808188608083E0914302F0914402DF
:10126000808180688083E0914302F0914402808114
:101270008F7D808360E081E00E94ED0467E371E090
:101280008EEC92E00E94CE0561E085E00E94ED04C4
:1012900065E471E08EEC92E00E94CE0564EF71E0AF
:1012A00080E090E00E94F9018EEC92E00E9435050A
:1012B00060E080E00E94ED046EE471E08EEC92E06C
:1012C0000E94CE0564EF71E080E090E00E94F90199
:1012D0004BEA242E41E0342E57E9C52E51E0D52E9D
:1012E00060E0E62E60E0F62E8EEC92E00E9435057E
:1012F0000E942B02882341F08091EB028C3009F48C
:1013000062C048F48B3001F1412C512C20EC622E4C
:101310002FE7722E43C085518230B0F71091E7025B
:10132000612F70E0762F662766277F778091E8022D
:10133000682B90E080E00E94230E2DEC3CEC4CECFE
:101340005DE30E94840E5BC06091E70270E090E074
:1013500080E00E94230E4B015C011091E80217FF10
:101360000AC0AC019B0160E070E080E89FEB0E9446
:101370007F0F4B015C011F70612F70E090E080E0F7
:101380000E94250E2DEC3CEC4CEC5DE30E94840E9B
:10139000A50194010E94800F2B013C010E942B02A9
:1013A000882351F08091EB028B3030F08D3080F14A
:1013B0008551823008F4E1C0812C912C90ECA92E4B
:1013C0009FE7B92E43C01091E702612F70E090E0D3
:1013D00080E00E94230E4B015C016091E8026F7077
:1013E00070E090E080E00E94250E2DEC3CEC4CEC8F
:1013F0005DE30E94840EA50194010E94800F2B01E1
:101400003C0117FFCBCF77FA709477F87094C6CF72
:101410006091E60270E090E080E00E94250E2DECE5
:101420003CEC4CEC5DE30E94840E4B015C0160914E
:10143000E50270E090E080E00E94250E9B01AC0187
:10144000C501B4010E94800F4B015C0160E080E0A7
:101450000E94ED04A3019201C301B2010E94F10FA9
:10146000811109C0A5019401C501B4010E94F10FC9
:10147000882309F494C08FE591E00E94F40564E7A5
:1014800071E08EEC92E00E94CE0564EF71E080E0A6
:1014900090E00E94F9018EEC92E00E94350561E037
:1014A00084E00E946A01E9E7F1E08491F10114917E
:1014B000F6010491002309F459C181110E944101F0
:1014C000E02FF0E0EE0FFF1FE657FE4FA591B4911D
:1014D0008C91182391E080E009F490E0092F182FF7
:1014E00060E080E00E94ED04012B09F442C18DEC24
:1014F00091E00E94F4056EED71E08EEC92E00E94A6
:10150000CE0561E087E00E946A01F6E4F0937C007A
:1015100080917A00806480937A0080917A0086FDC1
:10152000FCCF009178001091790061E080E00E948A
:10153000ED04053F11400CF424C189EF91E00E94B5
:10154000F4056CE072E08EEC92E00E94CE0561E062
:1015500088E00E946A0164EF71E080E090E00E9400
:10156000F901E114F10409F4BFCE0E94A403882319
:1015700009F4AECE0E940000ABCE6091E5027091FE
:10158000E60276276727762790E080E00E94230E08
:101590002DEC3CEC4CEC5DE30E94840E55CF60E0FA
:1015A00084E00E946A0160E080E00E94ED04B301E3
:1015B000A201CE0101960E94A30665E871E0CE016A
:1015C00007960E94FB06BE016F5F7F4FCE01079614
:1015D0000E946F068C0143E050E06CE871E00E94CD
:1015E0003106811103C0C8010E945D06B801CE0119
:1015F00043960E94E106CE0107960E940C07CE0199
:1016000001960E940C074F89588D6B897C898EEC5E
:1016100092E00E943A0320E030E040EF51E4C30141
:10162000B2010E94EC0F181654F020E030E040E2C6
:1016300051E4C301B2010E941E0E87FF8DC061E01C
:1016400085E00E946A0160E971E0CE0101960E9486
:10165000FB06BE016D5E7F4FCE0101960E946F06B4
:101660000E94DD05CE0101960E940C0761E080E03A
:101670000E94ED04B501A401CE0101960E94A306CB
:101680006BEA71E0CE0107960E94FB06BE016F5F18
:101690007F4FCE0107960E946F068C0141E050E01B
:1016A00063EB71E00E943106811103C0C8010E9402
:1016B0005D06B801CE010D960E94E106CE010796A7
:1016C0000E940C07CE0101960E940C0749895A8995
:1016D0006D857E858EEC92E00E943A0320E030E03A
:1016E00040E752E4C501B4010E94EC0F181654F013
:1016F00020E030E040E252E4C501B4010E941E0E39
:1017000087FF2FC061E086E00E946A0165EB71E00F
:10171000CE0101960E94FB06BE01635F7F4FCE01A2
:1017200001960E946F060E94DD05CE0101960E947F
:101730000C07CE010D960E940C07CE0143960E9425
:101740000C0764EF71E080E090E00E94F9018EECFC
:1017500092E00E943505A7CE60E085E00E946A0114
:1017600085CF60E086E00E946A01E3CF10E000E0F0
:10177000B7CE6EEE71E08EEC92E00E94CE0560E096
:10178000C1CE6BE172E08EEC92E00E94CE0560E08B
:10179000DFCEEF920F931F93CF93DF93E80134E0F6
:1017A00047FD34E1042E000C550B57FF03C0519543
:1017B00041955109E32E022F242FAE010E94E70B21
:1017C000CE01DF91CF911F910F91EF900895A9E085
:1017D000B0E0EDEEFBE00C94480F6A01F22EB02E63
:1017E000102FFBE3AF2EA01608F41BE31F5F012FA1
:1017F00027E0AE014F5F5F4F0E94460DBC0189811B
:10180000982F9970913009F43FC09BE2E1FC04C02D
:101810009E2D9170E0FC3AC05E2D5071E82FE8706B
:1018200083FF46C084E0911101C083E0EF2DE81BE7
:101830008F1508F0E0E0D6018E2F20E2552351F1FC
:10184000992329F0D6019C93C60101966C0196015B
:101850002D5F3F4FE2FE24C08EE4D6018C9391E4CD
:1018600011969C93119712968C93D9018E2F90E22A
:1018700081111BC0E20FF32FF11D10828EEF9FEF3D
:101880002996ECE00C94640F9DE2C6CF90E2C4CFA1
:101890002D9381508111FCCFCE0ED11CE0E0D0CF32
:1018A0008EE6D6018C9391E6DBCF9D938150E0CFFD
:1018B000482F447082FF3DC084E0911101C083E055
:1018C0008F1510F4EF2DE81BD6018E2F20E2552343
:1018D00009F1992329F0D6019C93C60101966C0168
:1018E00096012D5F3F4FE2FE1BC089E4D6018C9329
:1018F0008EE411968C93119786E412968C93D901FD
:101900008E2F90E2882309F4B5CF9D938150FACFB2
:101910002D9381508111FCCFCE0ED11CE0E0D9CFA8
:1019200089E6D6018C938EE611968C93119786E604
:10193000E4CF9B0177FF02C030E020E0A1E0B0E0FF
:10194000911102C0B0E0A0E0F9013196AE0FBF1FC7
:101950008B2C912CBB2009F461C05401EFEFAE1A1F
:10196000BE0AAA0DBB1DFA161B0619F014F04F2D66
:101970004A1B511188C0E3FC59C07601A42FB0E284
:10198000A1114FC0C40ED11C992309F45BC040E0E3
:10199000D6011196F60190836D01552309F448C0D4
:1019A000012F060F9A81582F507184FF03C0913385
:1019B00009F4015010160CF047C0093008F008E097
:1019C000EEE2FE2E5B01A01AB1088501919481948C
:1019D00091082F3F320729F4D601FC92F601319687
:1019E0006F016217730794F1021713077CF5DB018F
:1019F000A21BB30BAA24A394B12CAC0EBD1EAA0D3E
:101A0000BB1D11968C9121503109D60111962815D4
:101A10003905F4F0F60180836D01DBCFB12CA12CE8
:101A2000A0CFF701B1937F01A150AACF9111B0CF00
:101A3000D601942F50E302C05D9391509111FCCFD9
:101A4000C40ED11C40E0ACCF01E0BACF80E3DBCFC5
:101A50006217730731F4963388F4953311F45523E4
:101A600069F0F6018083FD01842F90E2811108C0A6
:101A7000A40FB11D1C9290E080E002CF81E3F1CF72
:101A800091938150F3CF911183CF8ACF283008F002
:101A900027E03327DA01990F311D87FD9160009609
:101AA0006105710539F432602E5F3D9330E32A956C
:101AB000E1F708959F3F30F080387105610509F026
:101AC0003C5F3C5F3D93913008F08068911DDF934F
:101AD000CF931F930F93FF92EF92192F987F9695B4
:101AE000E92F96959695E90FFF27EE53FF4F99271B
:101AF0003327EE24FF24A701E701059008940794FB
:101B000028F4360FE71EF81E491F511D660F771F78
:101B1000881F991F0694A1F70590079428F4E70EF3
:101B2000F81E491F561FC11D770F881F991F661F7A
:101B30000694A1F70590079428F4F80E491F561F44
:101B4000C71FD11D880F991F661F771F0694A1F725
:101B50000590079420F4490F561FC71FD81F990FEF
:101B6000661F771F881F0694A9F784911095177038
:101B700041F0D695C79557954795F794E7941A95F0
:101B8000C1F7E8E6F0E068941590159135916591FC
:101B9000959105907FE27395E118F10A430B560B7E
:101BA000C90BD009C0F7E10CF11E431F561FC91F16
:101BB000D01D7EF4703311F48A95E6CFE89401507D
:101BC00030F0080F0AF40027021708F4202F23959D
:101BD000022F7A3328F079E37D932A95E9F710C034
:101BE0007D932A9589F6069497956795379517956D
:101BF0001794E118F10A430B560BC90BD00998F062
:101C000023957E9173957A3308F070E37C932013CB
:101C1000B8F77E9170617D9330F0839571E37D9389
:101C200070E32A95E1F71124EF90FF900F911F9137
:101C3000CF91DF91992787FD909508950E94600EBE
:101C400008F481E00895E89409C097FB3EF490956C
:101C50008095709561957F4F8F4F9F4F9923A9F085
:101C6000F92F96E9BB279395F69587957795679514
:101C7000B795F111F8CFFAF4BB0F11F460FF1BC058
:101C80006F5F7F4F8F4F9F4F16C0882311F096E9EB
:101C900011C0772321F09EE8872F762F05C0662399
:101CA00071F096E8862F70E060E02AF09A95660F52
:101CB000771F881FDAF7880F9695879597F908950B
:101CC000990F0008550FAA0BE0E8FEEF161617064D
:101CD000E807F907C0F012161306E407F50798F0B5
:101CE000621B730B840B950B39F40A2661F0232BCE
:101CF000242B252B21F408950A2609F4A140A6954A
:101D00008FEF811D811D08950E94970E0C94080F7E
:101D10000E94FA0E38F00E94010F20F0952311F076
:101D20000C94F10E0C94F70E11240C943C0F0E94AD
:101D3000190F70F3959FC1F3950F50E0551F629FE7
:101D4000F001729FBB27F00DB11D639FAA27F00D14
:101D5000B11DAA1F649F6627B00DA11D661F829F3B
:101D60002227B00DA11D621F739FB00DA11D621F20
:101D7000839FA00D611D221F749F3327A00D611D3D
:101D8000231F849F600D211D822F762F6A2F11241F
:101D90009F5750409AF0F1F088234AF0EE0FFF1F52
:101DA000BB1F661F771F881F91505040A9F79E3FA9
:101DB000510580F00C94F10E0C943C0F5F3FE4F35E
:101DC000983ED4F3869577956795B795F795E795FF
:101DD0009F5FC1F7FE2B880F911D9695879597F908
:101DE000089597F99F6780E870E060E008959FEF9D
:101DF00080EC089500240A941616170618060906A2
:101E0000089500240A941216130614060506089570
:101E1000092E0394000C11F4882352F0BB0F40F4F8
:101E2000BF2B11F460FF04C06F5F7F4F8F4F9F4F38
:101E3000089557FD9058440F551F59F05F3F71F0BA
:101E40004795880F97FB991F61F09F3F79F0879521
:101E50000895121613061406551FF2CF4695F1DFAA
:101E600008C0161617061806991FF1CF869571053A
:101E7000610508940895E894BB2766277727CB016E
:101E800097F908952F923F924F925F926F927F92AF
:101E90008F929F92AF92BF92CF92DF92EF92FF927A
:101EA0000F931F93CF93DF93CDB7DEB7CA1BDB0B26
:101EB0000FB6F894DEBF0FBECDBF09942A883988CB
:101EC00048885F846E847D848C849B84AA84B984D2
:101ED000C884DF80EE80FD800C811B81AA81B981DE
:101EE000CE0FD11D0FB6F894DEBF0FBECDBFED01F2
:101EF0000895EE0FFF1F0590F491E02D09945058BE
:101F0000BB27AA270E94970F0C94080F0E94FA0E75
:101F100038F00E94010F20F039F49F3F19F426F4A5
:101F20000C94F70E0EF4E095E7FB0C94F10EE92FFC
:101F30000E94190F58F3BA176207730784079507B1
:101F400020F079F4A6F50C943B0F0EF4E0950B2EDF
:101F5000BA2FA02D0B01B90190010C01CA01A001FB
:101F60001124FF27591B99F0593F50F4503E68F156
:101F70001A16F040A22F232F342F4427585FF3CF97
:101F8000469537952795A795F0405395C9F77EF468
:101F90001F16BA0B620B730B840BBAF09150A1F0B1
:101FA000FF0FBB1F661F771F881FC2F70EC0BA0F37
:101FB000621F731F841F48F4879577956795B795BF
:101FC000F7959E3F08F0B0CF9395880F08F09927BA
:101FD000EE0F9795879508950E94600E08F48FEF95
:101FE00008950E94600E880B990B08950F931F931C
:101FF000CF93DF938230910510F482E090E0E0917E
:10200000FA02F091FB0230E020E0B0E0A0E030976F
:1020100099F42115310509F44AC0281B390B2430E5
:102020003105D8F58A819B816115710589F1FB0124
:1020300093838283FE0111C040815181028113810B
:1020400048175907E0F04817590799F4109761F0BD
:1020500012960C93129713961C933296CF01DF9130
:10206000CF911F910F9108950093FA021093FB02F4
:10207000F4CF2115310551F04217530738F0A9016B
:10208000DB019A01BD01DF01F801C1CFEF01F9CFFA
:102090009093FB028093FA02CDCFFE01E20FF31F73
:1020A000819391932250310939832883D7CF20918E
:1020B000F8023091F902232B41F420910201309172
:1020C00003013093F9022093F8022091000130912E
:1020D00001012115310541F42DB73EB740910401AE
:1020E00050910501241B350BE091F802F091F902A3
:1020F000E217F307A0F42E1B3F0B2817390778F0DF
:10210000AC014E5F5F4F2417350748F04E0F5F1F3D
:102110005093F9024093F802819391939FCFF0E09E
:10212000E0E09CCFCF93DF930097E9F0FC0132977A
:1021300013821282A091FA02B091FB02ED0130E00D
:1021400020E01097A1F420813181820F931F20910C
:10215000F8023091F9022817390709F061C0F093AD
:10216000F902E093F802DF91CF910895EA01CE17CA
:10217000DF07E8F54A815B819E0141155105B1F702
:10218000E901FB83EA8349915991C40FD51FEC17EC
:10219000FD0761F4808191810296840F951FE9010A
:1021A00099838883828193819B838A83F0E0E0E036
:1021B00012968D919C9113970097B9F52D913C91B2
:1021C0001197CD010296820F931F2091F802309152
:1021D000F9022817390739F6309751F51092FB02AA
:1021E0001092FA02B093F902A093F802BCCFD38305
:1021F000C28340815181840F951FC817D90761F4AC
:102200004E5F5F4F88819981480F591F51834083EA
:102210008A819B81938382832115310509F0B0CF98
:10222000F093FB02E093FA029ECFFD01DC01C0CFE8
:1022300013821282D7CFB0E0A0E0E1E2F1E10C948A
:10224000440F8C01009751F4CB010E94F60F8C01D2
:10225000C801CDB7DEB7E0E10C94600FFC01E60FDA
:10226000F71F9C0122503109E217F30708F49DC0C3
:10227000D901CD91DC911197C617D70798F0C530D9
:10228000D10530F3CE0104978617970708F3C61BD4
:10229000D70B2297C193D1936D937C93CF010E946A
:1022A0009210D6CF5B01AC1ABD0A4C018C0E9D1E5C
:1022B000A091FA02B091FB02512C412CF12CE12C9F
:1022C000109731F58091F8029091F90288159905DF
:1022D00009F05CC04616570608F058C0809100010E
:1022E00090910101009741F48DB79EB74091040190
:1022F00050910501841B950BE817F90708F055C0AC
:10230000F093F902E093F802F90171836083A0CFA2
:102310008D919C91119712966C90129713967C90C8
:102320001397A815B90559F56C0142E0C40ED11CEC
:10233000CA14DB0420F1AC014A195B09DA011296D8
:10234000159780F06282738251834083D9016D9327
:102350007C93E114F10471F0D7011396FC93EE9392
:10236000129776CF22968C0F9D1FF901918380835F
:10237000F301EFCFF093FB02E093FA0269CF481626
:10238000590608F42C017D01D3019ACFCB010E949C
:10239000F60F7C01009749F0AE01B8010E94DD11F3
:1023A000C8010E949210870153CF10E000E050CF87
:1023B00081E090E0F8940C94ED11FB01DC0102C087
:1023C00001900D9241505040D8F70895FB01DC0177
:0E23D00001900D920020E1F70895F894FFCFE0
:1023DE000000FC0280000040145400401050000029
:1023EE000000DA033A0367032704980376038A038F
:1023FE0000000000DA043A03CB05CA053D0590043F
:10240E007D04AC040D0A00477261696E2053746F2F
:10241E0072616765004D6F6E69746F72210053793A
:10242E007374656D20626F6F74696E672E2E004433
:10243E0048542073656E736F7220617420666175E7
:10244E006C7421004E6F204448542072656164699B
:10245E006E6773210054656D703A2000C2B0430060
:10246E0054656D7065726174757265206F75742038
:10247E006F662072616E67652C200048756D696409
:10248E003A2000250048756D6964697479206F756E
:10249E0074206F662072616E67652C20004D6F741C
:1024AE00696F6E2064657465637465642100526F94
:1024BE0064656E742070726573656E7421004E6F64
:1024CE00206D6F74696F6E210053706F696C616758
:1024DE006520646574656374656421004772616983
:1024EE006E2073706F696C656421004E6F2073707F
:0824FE006F696C616765210044
:00000001FF
