:100000000C94DF000C9407010C9407010C94070179
:100010000C9407010C9407010C9407010C94070140
:100020000C9407010C9407010C9407010C94070130
:100030000C9407010C9407010C9407010C94070120
:100040000C9437090C9407010C94A7090C948109AE
:100050000C9407010C9407010C9407010C94070100
:100060000C9418080C94070100407A10F35A00A071
:10007000724E18090010A5D4E80000E87648170071
:1000800000E40B54020000CA9A3B000000E1F505B1
:10009000000080969800000040420F000000A086FB
:1000A00001000000102700000000E803000000002D
:1000B0006400000000000A000000000001000000D1
:1000C00000002C76D888DC674F0823DFC1DFAE59EB
:1000D000E1B1B796E5E3E453C63AE651997696E87E
:1000E000E6C28426EB898C9B62ED407C6FFCEFBC02
:1000F0009C9F40F2BAA56FA5F490055A2AF75C932D
:100100006B6CF9676DC11BFCE0E40D47FEF520E662
:10011000B500D0ED902E0300943577050080841E45
:10012000080000204E0A000000C80C333333330FA0
:10013000986E12831141EF8D2114893BE65516CF3D
:10014000FEE6DB18D1844B381BF77C1D901DA4BB49
:10015000E424203284725E228100C9F124ECA1E5FE
:100160003D2700000000240027002A0000000000B6
:10017000250028002B0000000008000201000003F9
:100180000407000000000000000000000000230041
:1001900026002900040404040404040402020202E8
:1001A000020203030303030301020408102040803A
:1001B000010204081020010204081020D9091124AA
:1001C0001FBECFEFD8E0DEBFCDBF23E0A8E1B2E095
:1001D00001C01D92A83AB207E1F712E0A0E0B1E039
:1001E000EEEEF7E202C005900D92A831B107D9F703
:1001F00010E0CFEDD0E004C02197FE010E948611EF
:10020000CE3DD107C9F70E94410A0C94F5130C9416
:100210000000CF92DF92EF92FF92CF93DF93B091E5
:100220009803A0E08111AB2F8091990390E0880F93
:10023000991FAC0146575E4FC0909E03D0909F031C
:10024000E090A003F090A10330E020E0FA01C59116
:10025000D491E881B90190E080E0EB23EA130AC071
:100260002F5F3F4F6C157D058E059F0578F36FEF6F
:100270007FEFCB01DF91CF91FF90EF90DF90CF9098
:10028000089520918B02260F3327331F2132310529
:10029000ECF42091B102FC0190E080E0243069F0A0
:1002A00082E00895A0918B022191AC0147595D4FE6
:1002B000A40FB52FB11D2C930196861798F380914A
:1002C0008B02680F60938B0280E0089581E00895AF
:1002D000089508950895E091600280915F02E81703
:1002E00030F4F0E0E15CFD4F808190E008958FEF05
:1002F0009FEF08959091600280915F022FEF3FEF92
:10030000981748F4E92FF0E0E15CFD4F208130E0E0
:100310009F5F90936002C901089580915F02909160
:100320006002891B990B0895CF92DF92EF92FF92A2
:100330000F931F93CF93DF937C01CB018A01209110
:100340003E02222389F0EB016B01C40ED51ECC15B1
:10035000DD0569F06991D701ED91FC910190F08183
:10036000E02DC7010995F3CF642F0E944101C80118
:10037000DF91CF911F910F91FF90EF90DF90CF9081
:100380000895CF93DF931F92CDB7DEB76983209195
:100390003E022223F9F020916102203258F021E040
:1003A00030E0FC013383228390E080E00F90DF9106
:1003B000CF91089580916202E82FF0E0E25EFD4F58
:1003C000998190838F5F809362028093610281E0C4
:1003D00090E0ECCF61E0CE0101960E944101F7CFA1
:1003E000833081F028F4813099F08230A9F00895AB
:1003F0008730A9F08830C9F08430B1F48091800052
:100400008F7D03C0809180008F7780938000089556
:1004100084B58F7784BD089584B58F7DFBCF80919F
:10042000B0008F778093B00008958091B0008F7DE9
:10043000F9CF1F93CF93DF93282F30E0F901EA58CB
:10044000FE4F8491F901E855FE4FD491F901EC5625
:10045000FE4FC491CC23A9F0162F81110E94F00108
:10046000EC2FF0E0EE0FFF1FE459FE4FA591B49181
:100470008FB7F894EC91111108C0D095DE23DC936E
:100480008FBFDF91CF911F910895DE2BF8CF10928F
:10049000B10281E08093B3021092B20261E082E186
:1004A0000E94190261E083E10E941902E9EBF0E089
:1004B00080818E7F808380818D7F808388E480939C
:1004C000B80085E48093BC000895CF93DF9391E05A
:1004D000909368028823B9F0C091B800D091BA0017
:1004E0008091BC008A7B8093BC0060E082E10E9426
:1004F000190260E083E10E9419020E944702D09332
:10050000BA00C093B800DF91CF910895CF93DF93E5
:1005100090E0FC01E855FE4F24918C569E4FFC0163
:1005200084918823C9F090E0880F991FFC01EE594F
:10053000FE4FA591B491FC01E459FE4FC591D491B1
:1005400061110DC09FB7F8948C91209582238C93F4
:100550008881282328839FBFDF91CF91089562303F
:1005600051F49FB7F8943C91822F809583238C930C
:10057000E8812E2BEFCF8FB7F894EC912E2B2C9394
:100580008FBFEACF3FB7F89480911A0290911B0277
:10059000A0911C02B0911D0226B5A89B05C02F3F5B
:1005A00019F00196A11DB11D3FBFBA2FA92F982F99
:1005B0008827BC01CD01620F711D811D911D42E094
:1005C000660F771F881F991F4A95D1F708958F925C
:1005D0009F92AF92BF92CF92DF92EF92FF924B0128
:1005E0005C010E94C2026B017C010E94C2026C1974
:1005F0007D098E099F09683E734081059105A8F326
:1006000021E0821A9108A108B10888EEC80E83E0A3
:10061000D81EE11CF11C81149104A104B10429F736
:10062000FF90EF90DF90CF90BF90AF909F908F9012
:100630000895CF92DF92EF92FF920F931F93CF9383
:10064000DF93CDB7DEB7C054D1400FB6F894DEBF0C
:100650000FBECDBF2FB7F8948091D7029091D802EA
:10066000A091D902B091DA022FBF40919A03509124
:100670009B0360919C0370919D038C019D01041B61
:10068000150B260B370BB901A801403D57406105FA
:10069000710590F48091A203C05CDE4F0FB6F89410
:1006A000DEBF0FBECDBFDF91CF911F910F91FF90A5
:1006B000EF90DF90CF90089580939A0390939B03DF
:1006C000A0939C03B0939D03109295031092940302
:1006D00010929303109292031092910362E0809122
:1006E00096030E94860261E070E080E090E00E9444
:1006F000E70261E0809196030E94860260E08091AB
:1007000096030E941902809197038551823020F54B
:100710008BE291E10197F1F762E0809196030E94EC
:1007200086028091A30390E08230910538F0880F13
:10073000991F880F991F05970197F1F7F89480E0AA
:100740000E9409016F3F7F4F8F4F9F4F61F41092BE
:10075000A203789480E0A0CF64E170E080E090E0B4
:100760000E94E702D9CF81E00E9409016F3F7F4FCD
:100770008F4F9F4F61F38E010F5F1F4F6E018FEB05
:10078000C81A8EEFD80A780180E00E940901F701AB
:10079000608371838283938381E00E940901F70162
:1007A0006483758386839783F8E0EF0EF11CEC1465
:1007B000FD0451F7789430E020E0F801C080D1804A
:1007C000E280F3804481558166817781FFEFCF1607
:1007D000DF06EF06FF0631F04F3F8FEF580768073F
:1007E000780719F41092A203B5CFF90183E0F595CB
:1007F000E7958A95E1F7EF56FC4F8081880FC41684
:10080000D506E606F70610F180832F5F3F4F085F9D
:100810001F4F2832310589F64091950320919103AD
:1008200080919203280F3327331F80919303280F61
:10083000311D80919403820F932F911D99274817A2
:10084000190681F681E08093A20326CF8160DCCF78
:10085000AF92BF92CF92DF92EF92FF920F931F93CE
:10086000CF93DF936C017B018B01040F151FEB010C
:100870005E01AE18BF08C017D10759F06991D601C3
:10088000ED91FC910190F081E02DC6010995892B35
:1008900079F7C501DF91CF911F910F91FF90EF90F4
:1008A000DF90CF90BF90AF900895FC01538D448DA1
:1008B000252F30E0842F90E0821B930B541710F00B
:1008C000CF96089501970895FC01918D828D981718
:1008D00061F0A28DAE0FBF2FB11D5D968C91928DF0
:1008E0009F5F9F73928F90E008958FEF9FEF089521
:1008F000FC01918D828D981731F0828DE80FF11DEA
:10090000858D90E008958FEF9FEF0895FC01918D04
:10091000228D892F90E0805C9F4F821B91098F73FD
:100920009927089587EE92E00E94860421E0892BA2
:1009300009F420E0822F089580E090E0892B29F0CF
:100940000E94920481110C9400000895FC01A48D72
:10095000A80FB92FB11DA35ABF4F2C91848D90E0E1
:1009600001968F739927848FA689B7892C93A089C4
:10097000B1898C91837080648C93938D848D98134E
:1009800006C00288F389E02D80818F7D80830895E1
:10099000EF92FF920F931F93CF93DF93EC0181E0CF
:1009A000888F9B8D8C8D98131AC0E889F989808176
:1009B00085FF15C09FB7F894EE89FF896083E889A9
:1009C000F98980818370806480839FBF81E090E09B
:1009D000DF91CF911F910F91FF90EF900895F62E28
:1009E0000B8D10E00F5F1F4F0F731127E02E8C8DC2
:1009F0008E110CC00FB607FCFACFE889F989808107
:100A000085FFF5CFCE010E94A604F1CFEB8DEC0F50
:100A1000FD2FF11DE35AFF4FF0829FB7F8940B8F23
:100A2000EA89FB8980818062CFCFCF93DF93EC018D
:100A3000888D8823B9F0AA89BB89E889F9898C91C6
:100A400085FD03C0808186FD0DC00FB607FCF7CF82
:100A50008C9185FFF2CF808185FFEDCFCE010E9482
:100A6000A604E9CFDF91CF910895CF92DF92EF9264
:100A7000FF920F931F93CF93DF93FC01C48121E07A
:100A800020933E02C09318021092620210926102FB
:100A90008485682B8BED92E00E94C101D0916102A8
:100AA000D13208F092C00E94C2026B017C01809199
:100AB000B102811165C082E08093B10281E0809330
:100AC000B3028FEF8093B0021092D502D093D4027C
:100AD000AEE1B2E0E4EBF2E080E0D81385C0109222
:100AE000D6028091D602CC0FC82BC093D60280913B
:100AF000B202813009F07CC01092B2020E94C202A0
:100B00006B017C018091D6028093BB0080916402CE
:100B100090916502A0916602B0916702892B8A2BA1
:100B20008B2B99F00E94C202009164021091650221
:100B300020916602309167026C197D098E099F0928
:100B40000617170728073907E0F18091BC0083FDDD
:100B5000D9CF85EC8093BC000E94C2026B017C015E
:100B60008091B102823009F445C08091B0028F3F7C
:100B700061F18091B002803241F18091B00225C0D4
:100B80008091640290916502A0916602B091670223
:100B9000892B8A2B8B2B09F48ACF0E94C2020091E9
:100BA00064021091650220916602309167026C190F
:100BB0007D098E099F09061717072807390708F0CE
:100BC00076CF809163020E946502109262021092B9
:100BD000610210923E02DF91CF911F910F91FF9021
:100BE000EF90DF90CF9008959D9191938F5F75CF97
:100BF00085EEB0CF8091640290916502A09166026B
:100C0000B0916702892B8A2B8B2B09F4A9CF0E9404
:100C1000C202009164021091650220916602309137
:100C200067026C197D098E099F09061717072807A7
:100C3000390708F095CFC5CF089590E080E008957A
:100C4000FB0101900020E9F73197AF01461B570BDC
:100C5000DC01ED91FC910280F381E02D0994CF93AA
:100C6000DF93BC0187EE92E00E942006EC016EE368
:100C700071E087EE92E00E9420068C0F9D1FDF91AD
:100C8000CF910895CF93DF93FC014481558160811A
:100C9000718187EE92E00E942804EC016EE371E01E
:100CA00087EE92E00E9420068C0F9D1FDF91CF916E
:100CB000089585ED8093BC00809164029091650257
:100CC000A0916602B09167020796A11DB11D23E0B5
:100CD000B695A795979587952A95D1F72091BC0051
:100CE00024FD03C01092B102089540916402509116
:100CF00065026091660270916702452B462B472B77
:100D000069F30097A105B10541F02AE22A95F1F7B0
:100D100000C00197A109B109E1CF809163020C9451
:100D200065020F931F93CF93DF93EC018881998124
:100D3000009759F02A813B812617370730F081E070
:100D4000DF91CF911F910F9108958B016F5F7F4FBE
:100D50000E942813009759F0998388831B830A8384
:100D60002C813D81232B59F7FC011082E8CF80E0D4
:100D7000E7CFEF92FF920F931F93CF93DF9361150D
:100D8000710541F480E0DF91CF911F910F91FF90A9
:100D9000EF90089541155105B1F07B01EC010C81F4
:100DA0001D81040F151FB8010E949106882351F37D
:100DB000288139818C819D81B701820F931F0E9408
:100DC000EE131D830C8381E0DECFCF93DF93EC0124
:100DD00088819981009711F00E949F1219821882D0
:100DE0001D821C821B821A82DF91CF910895CF93BE
:100DF000DF93EC01FB0144815581608171810E9488
:100E0000B906811103C0CE010E94E506CE01DF9133
:100E1000CF910895EF92FF920F931F93CF93DF939B
:100E2000EC017B018A01BA010E94910681110BC07D
:100E3000CE010E94E506CE01DF91CF911F910F9167
:100E4000FF90EF9008951D830C83B70188819981ED
:100E50000E94EE13F0CFEF92FF920F931F93CF9368
:100E6000DF93CDB7DEB7A1970FB6F894DEBF0FBE04
:100E7000CDBF7C01CB01BA01F70111821082138230
:100E80001282158214828E010F5F1F4F22E044E010
:100E90000E94D60D0097C9F0FC0101900020E9F7EF
:100EA0003197AF01481B590BBC01C7010E940A07CB
:100EB000A1960FB6F894DEBF0FBECDBFDF91CF91E4
:100EC0001F910F91FF90EF900895C7010E94E506D2
:100ED000EFCFFC01118210821382128215821482DC
:100EE000FB0101900020E9F73197AF01461B570B3A
:100EF0000C940A07FC0180819181009711F00C94F9
:100F00009F120895FB01DC0111961C921E9213960C
:100F10001C921E92129715961C921E921497861779
:100F2000970749F0608171816115710521F0448155
:100F300055810C940A0708950F931F93CF938C014A
:100F4000C62F0E9435056C2F6460C8010E943505CC
:100F50006C2F6B7FC8010E94350583EC90E00197F0
:100F6000F1F7CF911F910F9108950F931F93CF9396
:100F7000DF938C01D62FC42F607F642B0E949C07C7
:100F800080E1D89FB00111246C2BC801DF91CF9173
:100F90001F910F910C949C07CF93DF93CDB7DEB7D1
:100FA00028970FB6F894DEBF0FBECDBF98E0E6E0FD
:100FB000F1E0DE01119601900D929A95E1F7909182
:100FC0008C03961708F46FEF262F30E0220F331FA3
:100FD00041E050E04C0F5D1F240F351FF901608187
:100FE000680F606840E084E893E028960FB6F894B4
:100FF000DEBF0FBECDBFDF91CF910C94B50740E0AF
:1010000061E084E893E00E94B5078BE39FE10197DC
:10101000F1F780918D03882321F060E080E00C944B
:10102000CC07089541E00E94B50781E090E0089563
:101030001F920F920FB60F9211242F933F934F934D
:101040005F936F937F938F939F93AF93BF93EF9330
:10105000FF938091B900887F803609F44AC0F0F58B
:10106000883209F4A7C018F5803109F49BC0B8F4A0
:10107000882309F4F9C0883009F494C0FF91EF91F6
:10108000BF91AF919F918F917F916F915F914F91A0
:101090003F912F910F900FBE0F901F9018958831A0
:1010A00009F488C0803251F78093B00214C08034B4
:1010B00009F49DC040F48033B9F38833F9F6809386
:1010C000B00285ECB0C0803509F485C0883509F4DC
:1010D00096C0883499F60E945906D0CF883909F411
:1010E0008CC038F5883729F050F4883611F08037F5
:1010F00029F683E08093B1021092AF0257C088387E
:1011000009F47BC0803919F0803809F0B7CF80919D
:10111000AF02803208F071C0E091AF0281E08E0F23
:101120008093AF028091BB00F0E0E157FD4F8083D8
:101130003DC0803B39F0E0F4803A09F479C0883A48
:1011400009F09CCF84E08093B10210928C0210923F
:101150008B02E0918902F0918A02099580918B02BD
:1011600081110FC081E080938B021092690209C047
:10117000803C09F4A6CF883C09F4A3CF883B09F052
:101180007DCFE0918C0281E08E0F80938C02F0E0A5
:10119000E759FD4F80818093BB0090918C02809134
:1011A0008B0229C08091D6028093BB0085EC80938E
:1011B000BC0064CF9091D5028091D402981758F565
:1011C000E091D50281E08E0F8093D502F0E0EC54DF
:1011D000FD4F8081E9CFE091D50281E08E0F8093B1
:1011E000D5028091BB00F0E0EC54FD4F80839091DC
:1011F000D5028091D4029817C8F285E8D8CFE09143
:10120000D50281E08E0F8093D5028091BB00F0E083
:10121000EC54FD4F80838091B30281115CCF81E05B
:101220008093B20284EA8093BC001092B10226CF70
:1012300085EC8093BC001092B1028091AF028032A5
:1012400030F4E091AF02F0E0E157FD4F1082609181
:10125000AF0270E0E0918D02F0918E028FE892E093
:1012600009951092AF020ACF1092B00234CF1F92AC
:101270000F920FB60F9211242F933F938F939F934A
:10128000AF93BF938091D7029091D802A091D902D9
:10129000B091DA023091190223E0230F2D3758F56F
:1012A0000196A11DB11D209319028093D70290933E
:1012B000D802A093D902B093DA0280911A029091D9
:1012C0001B02A0911C02B0911D020196A11DB11D2F
:1012D00080931A0290931B02A0931C02B0931D02EC
:1012E000BF91AF919F918F913F912F910F900FBE22
:1012F0000F901F90189526E8230F0296A11DB11D8F
:10130000D2CF1F920F920FB60F9211242F933F93BB
:101310004F935F936F937F938F939F93AF93BF93FD
:10132000EF93FF9387EE92E00E94A604FF91EF9166
:10133000BF91AF919F918F917F916F915F914F91ED
:101340003F912F910F900FBE0F901F9018951F92F5
:101350000F920FB60F9211242F938F939F93EF93B9
:10136000FF93E091F702F091F8028081E091FD0295
:10137000F091FE0282FD1BC09081809100038F5F7F
:101380008F7320910103821741F0E0910003F0E098
:10139000E951FD4F958F80930003FF91EF919F914D
:1013A0008F912F910F900FBE0F901F9018958081F5
:1013B000F4CFEBEDF2E01382128288EE93E0A0E02E
:1013C000B0E084839583A683B78322E131E0318343
:1013D0002083E7EEF2E01382128284839583A68352
:1013E000B78384E291E09183808385EC90E09587D8
:1013F000848784EC90E09787868780EC90E0918BDF
:10140000808B81EC90E0938B828B82EC90E0958BCB
:10141000848B86EC90E0978B868B118E128E138EC8
:10142000148EA1E9B3E082E015968C9315979BE0AA
:1014300016969C931697EAEAF1E0E4911796EC93DE
:101440001797E6E9F1E0E4911896EC93189740E8D5
:101450005EE360E070E01D964D935D936D937C9329
:101460005097E4E8F3E01382128226E331E03183FF
:101470002083118697E2948390E192878387148674
:101480000895CF93DF93CDB7DEB768970FB6F89482
:10149000DEBF0FBECDBF789484B5826084BD84B5B5
:1014A000816084BD85B5826085BD85B5816085BD5F
:1014B00080916E00816080936E0010928100809117
:1014C000810082608093810080918100816080939F
:1014D0008100809180008160809380008091B100C4
:1014E00084608093B1008091B00081608093B000EF
:1014F00080917A00846080937A0080917A00826083
:1015000080937A0080917A00816080937A00809144
:101510007A00806880937A001092C10062E0809126
:1015200096030E9486022FB7F8948091D70290917B
:10153000D802A091D902B091DA022FBF805D974006
:10154000A109B10980939A0390939B03A0939C03F4
:10155000B0939D0387E38093A303109260021092DF
:101560005F0210926202109261020E94470288E6B6
:1015700091E090938A028093890289E691E09093AA
:101580008E0280938D021092890380918F038230A6
:1015900018F098E09093890380938C0362E370E0E5
:1015A00080E090E00E94E7026091900384E893E07D
:1015B0000E94350568EE73E080E090E00E94E7024B
:1015C00060E384E893E00E949C070BE416E4C80102
:1015D0000197F1F760E384E893E00E949C07C8015B
:1015E0000197F1F760E384E893E00E949C0783E5AC
:1015F00092E00197F1F760E284E893E00E949C0793
:1016000060918903606240E084E893E00E94B5073E
:1016100084E080938A0340E06CE084E893E00E94D9
:10162000B5070E94FF0712E010938B0340E066E0CD
:1016300084E893E00E94B50740E062E084E893E02C
:101640000E94B5078BE39FE10197F1F760E083E02B
:101650000E94860261E084E00E94860261E085E0EB
:101660000E94860261E086E00E94860261E087E0D7
:101670000E948602E091F702F091F8021083E09157
:10168000F302F091F4021082E091F502F091F6027B
:101690008FEC80831092FF02E091FB02F091FC023C
:1016A00086E08083E091F902F091FA028081806106
:1016B0008083E091F902F091FA0280818860808352
:1016C000E091F902F091FA02808180688083E091D4
:1016D000F902F091FA0280818F7D808360E080E0E2
:1016E0000E94CC0761E471E084E893E00E94200648
:1016F00061E085E00E94CC076FE471E084E893E04C
:101700000E94200668EE73E080E090E00E94E7020D
:1017100047E9242E41E0342E50E0C52E50E0D52E6E
:101720000E94FF070E941903882341F080919703CC
:101730008C3009F462C048F48B3001F1412C512CFB
:1017400020EC622E2FE7722E43C085518230B0F715
:1017500010919303612F70E0762F662766277F77BD
:1017600080919403682B90E080E00E9430102DEC73
:101770003CEC4CEC5DE30E9491105BC060919303E4
:1017800070E090E080E00E9430104B015C0110910D
:10179000940317FF0AC0AC019B0160E070E080E891
:1017A0009FEB0E948C114B015C011F70612F70E058
:1017B00090E080E00E9432102DEC3CEC4CEC5DE3BC
:1017C0000E949110A50194010E948D112B013C01F2
:1017D0000E941903882351F0809197038B3030F0D9
:1017E0008D3080F18551823008F4BDC0812C912C60
:1017F00090ECA92E9FE7B92E43C010919303612F5F
:1018000070E090E080E00E9430104B015C0160913C
:1018100094036F7070E090E080E00E9432102DEC35
:101820003CEC4CEC5DE30E949110A50194010E94F8
:101830008D112B013C0117FFCBCF77FA709477F80D
:101840007094C6CF6091920370E090E080E00E94B7
:1018500032102DEC3CEC4CEC5DE30E9491104B01FE
:101860005C016091910370E090E080E00E94321092
:101870009B01AC01C501B4010E948D114B015C01BB
:10188000E9E7F1E08491EBEAF1E00491F1011491D0
:10189000112309F47AC081110E94F001E12FF0E0D8
:1018A000EE0FFF1FE657FE4FA591B4918C910823D0
:1018B00091E080E009F490E0092F182FA301920134
:1018C000C301B2010E94FE11811109C0A50194015A
:1018D000C501B4010E94FE11882309F459C088E5AE
:1018E00091E00E942F0660E080E00E94CC076DE648
:1018F00071E084E893E00E94200661E084E00E94A9
:101900001902B801012E000C880B990B0E943210AD
:101910009B01AC010E94FE11882309F41EC186ECD4
:1019200091E00E942F0660E080E00E94CC076BED02
:1019300071E084E893E00E94200661E084E00E9468
:1019400019026EEE72E080E090E00E94E702C1149E
:10195000D10409F4E5CE0E949204882309F4D8CE7C
:101960000E940000D5CE609191037091920376277A
:101970006727762790E080E00E9430102DEC3CEC49
:101980004CEC5DE30E94911079CF10E000E096CF1F
:1019900060E084E00E94190260E080E00E94CC07D1
:1019A000B301A201CE0101960E942B076EE771E000
:1019B000CE0107960E946907BE016F5F7F4FCE017F
:1019C00007960E94F7067C0143E050E065E871E06D
:1019D0000E94B906811103C0C7010E94E506B70144
:1019E000CE0143960E948207CE0107960E947A0795
:1019F000CE0101960E947A074F89588D6B897C89A8
:101A000084E893E00E94280420E030E040EF51E4B5
:101A1000C301B2010E94F911181654F020E030E021
:101A200040E251E4C301B2010E942B1087FF8BC03A
:101A300061E085E00E94190269E871E0CE0101963B
:101A40000E946907BE016D5E7F4FCE0101960E9424
:101A5000F7060E944206CE0101960E947A0761E0D5
:101A600080E00E94CC07B501A401CE0101960E943E
:101A70002B0764EA71E0CE0107960E946907BE0158
:101A80006F5F7F4FCE0107960E94F7067C0141E011
:101A900050E06CEA71E00E94B906811103C0C701F1
:101AA0000E94E506B701CE010D960E948207CE0185
:101AB00007960E947A07CE0101960E947A0749890B
:101AC0005A896D857E8584E893E00E94280420E091
:101AD00030E040E752E4C501B4010E94F911181644
:101AE00054F020E030E040E252E4C501B4010E942D
:101AF0002B1087FF2DC061E086E00E9419026EEA7C
:101B000071E0CE0101960E946907BE01635F7F4FBD
:101B1000CE0101960E94F7060E944206CE01019670
:101B20000E947A07CE010D960E947A07CE01439655
:101B30000E947A076CED75E080E090E00E94E70279
:101B40000E94FF07DECE60E085E00E94190287CF89
:101B500060E086E00E941902E5CF60E084E00E9428
:101B6000190260E080E00E94CC07012BB9F08CEEF6
:101B700091E00E942F066DEF71E084E893E00E94EF
:101B8000200661E087E00E9419026CED75E080E0BC
:101B900090E00E94E7020E94FF07D3CE6DE072E062
:101BA00084E893E00E94200660E0ECCFEF920F9370
:101BB0001F93CF93DF93E80134E047FD34E1042E17
:101BC000000C550B57FF03C0519541955109E32E69
:101BD000022F242FAE010E94F40DCE01DF91CF9190
:101BE0001F910F91EF900895A9E0B0E0EAEFFDE0BA
:101BF0000C9455116A01F22EB02E102FFBE3AF2E7C
:101C0000A01608F41BE31F5F012F27E0AE014F5F12
:101C10005F4F0E94530FBC018981982F99709130BA
:101C200009F43FC09BE2E1FC04C09E2D9170E0FCF2
:101C30003AC05E2D5071E82FE87083FF46C084E003
:101C4000911101C083E0EF2DE81B8F1508F0E0E053
:101C5000D6018E2F20E2552351F1992329F0D60188
:101C60009C93C60101966C0196012D5F3F4FE2FEE9
:101C700024C08EE4D6018C9391E411969C93119725
:101C800012968C93D9018E2F90E281111BC0E20F26
:101C9000F32FF11D10828EEF9FEF2996ECE00C944C
:101CA00071119DE2C6CF90E2C4CF2D938150811176
:101CB000FCCFCE0ED11CE0E0D0CF8EE6D6018C93C7
:101CC00091E6DBCF9D938150E0CF482F447082FF97
:101CD0003DC084E0911101C083E08F1510F4EF2D19
:101CE000E81BD6018E2F20E2552309F1992329F014
:101CF000D6019C93C60101966C0196012D5F3F4F62
:101D0000E2FE1BC089E4D6018C938EE411968C937D
:101D1000119786E412968C93D9018E2F90E2882336
:101D200009F4B5CF9D938150FACF2D938150811145
:101D3000FCCFCE0ED11CE0E0D9CF89E6D6018C9342
:101D40008EE611968C93119786E6E4CF9B0177FF80
:101D500002C030E020E0A1E0B0E0911102C0B0E0AC
:101D6000A0E0F9013196AE0FBF1F8B2C912CBB2048
:101D700009F461C05401EFEFAE1ABE0AAA0DBB1DF3
:101D8000FA161B0619F014F04F2D4A1B511188C08A
:101D9000E3FC59C07601A42FB0E2A1114FC0C40EDC
:101DA000D11C992309F45BC040E0D6011196F601DD
:101DB00090836D01552309F448C0012F060F9A81C5
:101DC000582F507184FF03C0913309F4015010164D
:101DD0000CF047C0093008F008E0EEE2FE2E5B018F
:101DE000A01AB10885019194819491082F3F320780
:101DF00029F4D601FC92F60131966F016217730740
:101E000094F1021713077CF5DB01A21BB30BAA2484
:101E1000A394B12CAC0EBD1EAA0DBB1D11968C91C6
:101E200021503109D601119628153905F4F0F60133
:101E300080836D01DBCFB12CA12CA0CFF701B19332
:101E40007F01A150AACF9111B0CFD601942F50E3BA
:101E500002C05D9391509111FCCFC40ED11C40E0A3
:101E6000ACCF01E0BACF80E3DBCF6217730731F468
:101E7000963388F4953311F4552369F0F601808385
:101E8000FD01842F90E2811108C0A40FB11D1C92A6
:101E900090E080E002CF81E3F1CF91938150F3CFC6
:101EA000911183CF8ACF283008F027E03327DA0159
:101EB000990F311D87FD916000966105710539F418
:101EC00032602E5F3D9330E32A95E1F708959F3FFE
:101ED00030F080387105610509F03C5F3C5F3D934F
:101EE000913008F08068911DDF93CF931F930F937B
:101EF000FF92EF92192F987F9695E92F96959695D8
:101F0000E90FFF27EE53FF4F99273327EE24FF24D5
:101F1000A701E70105900894079428F4360FE71EFF
:101F2000F81E491F511D660F771F881F991F0694C1
:101F3000A1F70590079428F4E70EF81E491F561FD5
:101F4000C11D770F881F991F661F0694A1F7059082
:101F5000079428F4F80E491F561FC71FD11D880F7C
:101F6000991F661F771F0694A1F70590079420F428
:101F7000490F561FC71FD81F990F661F771F881F4D
:101F80000694A9F784911095177041F0D695C795DE
:101F900057954795F794E7941A95C1F7E8E6F0E06E
:101FA00068941590159135916591959105907FE212
:101FB0007395E118F10A430B560BC90BD009C0F712
:101FC000E10CF11E431F561FC91FD01D7EF4703354
:101FD00011F48A95E6CFE894015030F0080F0AF426
:101FE0000027021708F4202F2395022F7A3328F0B8
:101FF00079E37D932A95E9F710C07D932A9589F6B8
:10200000069497956795379517951794E118F10AF7
:10201000430B560BC90BD00998F023957E9173950D
:102020007A3308F070E37C932013B8F77E917061E7
:102030007D9330F0839571E37D9370E32A95E1F70A
:102040001124EF90FF900F911F91CF91DF9199276D
:1020500087FD909508950E946D1008F481E0089521
:10206000E89409C097FB3EF4909580957095619532
:102070007F4F8F4F9F4F9923A9F0F92F96E9BB27E8
:102080009395F695879577956795B795F111F8CF64
:10209000FAF4BB0F11F460FF1BC06F5F7F4F8F4FCF
:1020A0009F4F16C0882311F096E911C0772321F0C5
:1020B0009EE8872F762F05C0662371F096E8862F5D
:1020C00070E060E02AF09A95660F771F881FDAF7B4
:1020D000880F9695879597F90895990F0008550FE1
:1020E000AA0BE0E8FEEF16161706E807F907C0F09E
:1020F00012161306E407F50798F0621B730B840BA6
:10210000950B39F40A2661F0232B242B252B21F47F
:1021100008950A2609F4A140A6958FEF811D811D1F
:1021200008950E94A4100C9415110E94071138F014
:102130000E940E1120F0952311F00C94FE100C94C7
:10214000041111240C9449110E94261170F3959FDB
:10215000C1F3950F50E0551F629FF001729FBB279E
:10216000F00DB11D639FAA27F00DB11DAA1F649F3A
:102170006627B00DA11D661F829F2227B00DA11DED
:10218000621F739FB00DA11D621F839FA00D611D73
:10219000221F749F3327A00D611D231F849F600D94
:1021A000211D822F762F6A2F11249F5750409AF0BD
:1021B000F1F088234AF0EE0FFF1FBB1F661F771F49
:1021C000881F91505040A9F79E3F510580F00C9414
:1021D000FE100C9449115F3FE4F3983ED4F38695CA
:1021E00077956795B795F795E7959F5FC1F7FE2BB4
:1021F000880F911D9695879597F9089597F99F6790
:1022000080E870E060E008959FEF80EC089500247E
:102210000A941616170618060906089500240A944B
:1022200012161306140605060895092E0394000CD1
:1022300011F4882352F0BB0F40F4BF2B11F460FF60
:1022400004C06F5F7F4F8F4F9F4F089557FD905889
:10225000440F551F59F05F3F71F04795880F97FB6A
:10226000991F61F09F3F79F0879508951216130624
:102270001406551FF2CF4695F1DF08C01616170653
:102280001806991FF1CF8695710561050894089588
:10229000E894BB2766277727CB0197F908952F92FB
:1022A0003F924F925F926F927F928F929F92AF92E6
:1022B000BF92CF92DF92EF92FF920F931F93CF9333
:1022C000DF93CDB7DEB7CA1BDB0B0FB6F894DEBFCA
:1022D0000FBECDBF09942A88398848885F846E84F0
:1022E0007D848C849B84AA84B984C884DF80EE803A
:1022F000FD800C811B81AA81B981CE0FD11D0FB643
:10230000F894DEBF0FBECDBFED010895EE0FFF1FA5
:102310000590F491E02D09945058BB27AA270E94FC
:10232000A4110C9415110E94071138F00E940E118F
:1023300020F039F49F3F19F426F40C9404110EF4A4
:10234000E095E7FB0C94FE10E92F0E94261158F34C
:10235000BA17620773078407950720F079F4A6F58A
:102360000C9448110EF4E0950B2EBA2FA02D0B0102
:10237000B90190010C01CA01A0011124FF27591BCA
:1023800099F0593F50F4503E68F11A16F040A22FD0
:10239000232F342F4427585FF3CF46953795279541
:1023A000A795F0405395C9F77EF41F16BA0B620B40
:1023B000730B840BBAF09150A1F0FF0FBB1F661F87
:1023C000771F881FC2F70EC0BA0F621F731F841FCA
:1023D00048F4879577956795B795F7959E3F08F0F0
:1023E000B0CF9395880F08F09927EE0F97958795B2
:1023F00008950E946D1008F48FEF08950E946D10EB
:10240000880B990B08950F931F93CF93DF9382301E
:10241000910510F482E090E0E091A603F091A7030B
:1024200030E020E0B0E0A0E0309799F421153105CC
:1024300009F44AC0281B390B24303105D8F58A81AC
:102440009B816115710589F1FB0193838283FE01F4
:1024500011C0408151810281138148175907E0F072
:102460004817590799F4109761F012960C93129738
:1024700013961C933296CF01DF91CF911F910F914C
:1024800008950093A6031093A703F4CF21153105F7
:1024900051F04217530738F0A901DB019A01BD0141
:1024A000DF01F801C1CFEF01F9CF9093A70380932B
:1024B000A603CDCFFE01E20FF31F8193919322502B
:1024C000310939832883D7CF2091A4033091A50304
:1024D000232B41F420910201309103013093A50395
:1024E0002093A403209100013091010121153105B1
:1024F00041F42DB73EB74091040150910501241BD2
:10250000350BE091A403F091A503E217F307A0F4C3
:102510002E1B3F0B2817390778F0AC014E5F5F4F39
:102520002417350748F04E0F5F1F5093A5034093C3
:10253000A403819391939FCFF0E0E0E09CCFCF93F1
:10254000DF930097E9F0FC01329713821282A09189
:10255000A603B091A703ED0130E020E01097A1F4AD
:1025600020813181820F931F2091A4033091A50314
:102570002817390709F061C0F093A503E093A4037D
:10258000DF91CF910895EA01CE17DF07E8F54A8180
:102590005B819E0141155105B1F7E901FB83EA8397
:1025A00049915991C40FD51FEC17FD0761F4808143
:1025B00091810296840F951FE90199838883828116
:1025C00093819B838A83F0E0E0E012968D919C9149
:1025D00013970097B9F52D913C911197CD01029673
:1025E000820F931F2091A4033091A5032817390768
:1025F00039F6309751F51092A7031092A603B093C5
:10260000A503A093A403BCCFD383C283408151818F
:10261000840F951FC817D90761F44E5F5F4F8881FB
:102620009981480F591F518340838A819B819383ED
:1026300082832115310509F0B0CFF093A703E09311
:10264000A6039ECFFD01DC01C0CF13821282D7CF3B
:10265000B0E0A0E0EEE2F3E10C9451118C010097A0
:1026600051F4CB010E9403128C01C801CDB7DEB733
:10267000E0E10C946D11FC01E60FF71F9C01225064
:102680003109E217F30708F49DC0D901CD91DC911F
:102690001197C617D70798F0C530D10530F3CE0192
:1026A00004978617970708F3C61BD70B2297C19389
:1026B000D1936D937C93CF010E949F12D6CF5B0183
:1026C000AC1ABD0A4C018C0E9D1EA091A603B091C0
:1026D000A703512C412CF12CE12C109731F580915E
:1026E000A4039091A5038815990509F05CC04616CE
:1026F000570608F058C080910001909101010097A1
:1027000041F48DB79EB74091040150910501841B9F
:10271000950BE817F90708F055C0F093A503E0936F
:10272000A403F90171836083A0CF8D919C911197CF
:1027300012966C90129713967C901397A815B90572
:1027400059F56C0142E0C40ED11CCA14DB0420F11F
:10275000AC014A195B09DA011296159780F0628282
:10276000738251834083D9016D937C93E114F1040A
:1027700071F0D7011396FC93EE93129776CF2296C1
:102780008C0F9D1FF90191838083F301EFCFF093AC
:10279000A703E093A60369CF4816590608F42C0155
:1027A0007D01D3019ACFCB010E9403127C010097D7
:1027B00049F0AE01B8010E94E513C8010E949F12C2
:1027C000870153CF10E000E050CFFB01DC0102C0D5
:1027D00001900D9241505040D8F70895FB01DC0163
:0E27E00001900D920020E1F70895F894FFCFCC
:1027EE000000A80380000000400014005400000008
:1027FE000000C10194011D066A018D017A016B0171
:10280E0000000000C804280455041505860464045D
:10281E00780400000000120828041D061C060D0A8C
:10282E0000477261696E2053746F72616765004D67
:10283E006F6E69746F7221004448542073656E7315
:10284E006F72206174206661756C7421004E6F206A
:10285E004448542072656164696E67732100546543
:10286E006D703A2000C2B0430054656D70657261A0
:10287E0074757265206F7574206F662072616E6755
:10288E00652C200048756D69643A20002500487556
:10289E006D6964697479206F7574206F662072613A
:1028AE006E67652C20005049522073656E736F72EF
:1028BE00206174206661756C7421004E6F20504942
:1028CE005220646574656374696F6E004D6F746930
:1028DE006F6E2064657465637465642100526F6465
:1028EE00656E742070726573656E7421004E6F2074
:0828FE006D6F74696F6E21001B
:00000001FF
