:100000000C94E0000C9408010C9408010C94A70ACD
:100010000C94A70A0C94A70A0C9408010C940801EC
:100020000C9408010C9408010C9408010C9408012C
:100030000C9408010C9408010C9408010C9408011C
:100040000C94050A0C9408010C94750A0C944F0A40
:100050000C9408010C9408010C9408010C940801FC
:100060000C94E6080C94080100407A10F35A00A0A2
:10007000724E18090010A5D4E80000E87648170071
:1000800000E40B54020000CA9A3B000000E1F505B1
:10009000000080969800000040420F000000A086FB
:1000A00001000000102700000000E803000000002D
:1000B0006400000000000A000000000001000000D1
:1000C00000002C76D888DC674F0823DFC1DFAE59EB
:1000D000E1B1B796E5E3E453C63AE651997696E87E
:1000E000E6C28426EB898C9B62ED407C6FFCEFBC02
:1000F0009C9F40F2BAA56FA5F490055A2AF75C932D
:100100006B6CF9676DC11BFCE0E40D47FEF520E662
:10011000B500D0ED902E0300943577050080841E45
:10012000080000204E0A000000C80C333333330FA0
:10013000986E12831141EF8D2114893BE65516CF3D
:10014000FEE6DB18D1844B381BF77C1D901DA4BB49
:10015000E424203284725E228100C9F124ECA1E5FE
:100160003D2700000000240027002A0000000008AE
:10017000000201000003040700000000000000006E
:1001800000000000230026002900000000002500D8
:1001900028002B00040404040404040402020202E4
:1001A000020203030303030301020408102040803A
:1001B0000102040810200102040810201F0B9110F6
:1001C00011241FBECFEFD8E0DEBFCDBF24E0AEE5E7
:1001D000B2E001C01D92A735B207E1F712E0A0E03E
:1001E000B1E0EAEBFDE202C005900D92AE35B10739
:1001F000D9F710E0CFEDD0E004C02197FE010E94B6
:100200006114CE3DD107C9F70E94130C0C94D0168F
:100210000C940000CF92DF92EF92FF92CF93DF9386
:10022000B0914704A0E08111AB2F8091480490E089
:10023000880F991FAC0140585E4FC0904D04D0907C
:100240004E04E0904F04F090500430E020E0FA01BA
:10025000C591D491E881B90190E080E0EB23EA13E5
:100260000AC02F5F3F4F6C157D058E059F0578F303
:100270006FEF7FEFCB01DF91CF91FF90EF90DF9099
:10028000CF90089520911503260F3327331F213275
:100290003105ECF420913B03FC0190E080E0243038
:1002A00069F082E00895A09115032191AC014D50B1
:1002B0005D4FA40FB52FB11D2C930196861798F3AF
:1002C00080911503680F6093150380E0089581E025
:1002D0000895089508950895E091EA028091E90251
:1002E000E81730F4F0E0E753FD4F808190E0089587
:1002F0008FEF9FEF08959091EA028091E9022FEF2E
:100300003FEF981748F4E92FF0E0E753FD4F2081C5
:1003100030E09F5F9093EA02C90108958091E9025D
:100320009091EA02891B990B0895CF92DF92EF9288
:10033000FF920F931F93CF93DF937C01CB018A0130
:100340002091C802222389F0EB016B01C40ED51E57
:10035000CC15DD0569F06991D701ED91FC91019013
:10036000F081E02DC7010995F3CF642F0E9442016F
:10037000C801DF91CF911F910F91FF90EF90DF9017
:10038000CF900895CF93DF931F92CDB7DEB76983E7
:100390002091C8022223F9F02091EB02203258F07C
:1003A00021E030E0FC013383228390E080E00F9075
:1003B000DF91CF9108958091EC02E82FF0E0E855AD
:1003C000FD4F998190838F5F8093EC028093EB02C5
:1003D00081E090E0ECCF61E0CE0101960E94420105
:1003E000F7CF833081F028F4813099F08230A9F082
:1003F00008958730A9F08830C9F08430B1F4809135
:1004000080008F7D03C0809180008F778093800073
:10041000089584B58F7784BD089584B58F7DFBCF13
:100420008091B0008F778093B00008958091B000E4
:100430008F7DF9CF1F93CF93DF93282F30E0F90101
:10044000E459FE4F8491F901E855FE4FD491F9012A
:10045000EC56FE4FC491CC23A9F0162F81110E94B7
:10046000F101EC2FF0E0EE0FFF1FE657FE4FA591D4
:10047000B4918FB7F894EC91111108C0D095DE2398
:10048000DC938FBFDF91CF911F910895DE2BF8CFC2
:1004900010923B0381E080933D0310923C0361E0A6
:1004A00082E10E941A0261E083E10E941A02E9EBF4
:1004B000F0E080818E7F808380818D7F808388E4DF
:1004C0008093B80085E48093BC000895CF93DF93B8
:1004D00091E09093F2028823B9F0C091B800D091D6
:1004E000BA008091BC008A7B8093BC0060E082E10E
:1004F0000E941A0260E083E10E941A020E944802F0
:10050000D093BA00C093B800DF91CF910895CF93F4
:10051000DF9390E0FC01E855FE4F24918C569E4FEE
:10052000FC0184918823C9F090E0880F991FFC0199
:10053000EE59FE4FA591B491FC01E657FE4FC591CF
:10054000D49161110DC09FB7F8948C9120958223AE
:100550008C938881282328839FBFDF91CF910895B2
:10056000623051F49FB7F8943C91822F8095832399
:100570008C93E8812E2BEFCF8FB7F894EC912E2B34
:100580002C938FBFEACF3FB7F8948091A40290914B
:10059000A502A091A602B091A70226B5A89B05C00E
:1005A0002F3F19F00196A11DB11D3FBFBA2FA92FF2
:1005B000982F8827BC01CD01620F711D811D911DEF
:1005C00042E0660F771F881F991F4A95D1F708955B
:1005D0008F929F92AF92BF92CF92DF92EF92FF9253
:1005E0004B015C010E94C3026B017C010E94C302AB
:1005F0006C197D098E099F09683E7340810591053C
:10060000A8F321E0821A9108A108B10888EEC80E6B
:1006100083E0D81EE11CF11C81149104A104B104F3
:1006200029F7FF90EF90DF90CF90BF90AF909F9011
:100630008F900895CF92DF92EF92FF920F931F93C6
:10064000CF93DF93CDB7DEB7C054D1400FB6F89447
:10065000DEBF0FBECDBF2FB7F8948091610390919C
:100660006203A0916303B09164032FBF40914904DA
:1006700050914A0460914B0470914C048C019D018F
:10068000041B150B260B370BB901A801403D574041
:100690006105710590F480915104C05CDE4F0FB686
:1006A000F894DEBF0FBECDBFDF91CF911F910F91A8
:1006B000FF90EF90DF90CF9008958093490490933E
:1006C0004A04A0934B04B0934C041092440410923B
:1006D000430410924204109241041092400462E0DC
:1006E000809145040E94870261E070E080E090E024
:1006F0000E94E80261E0809145040E94870260E068
:10070000809145040E941A028091460485518230EE
:1007100020F58BE291E10197F1F762E080914504C9
:100720000E9487028091520490E08230910538F057
:10073000880F991F880F991F05970197F1F7F89473
:1007400080E00E940A016F3F7F4F8F4F9F4F61F4FF
:1007500010925104789480E0A0CF64E170E080E0D2
:1007600090E00E94E802D9CF81E00E940A016F3F29
:100770007F4F8F4F9F4F61F38E010F5F1F4F6E01B1
:100780008FEBC81A8EEFD80A780180E00E940A0128
:10079000F701608371838283938381E00E940A0161
:1007A000F7016483758386839783F8E0EF0EF11C6D
:1007B000EC14FD0451F7789430E020E0F801C0809B
:1007C000D180E280F3804481558166817781FFEF9B
:1007D000CF16DF06EF06FF0631F04F3F8FEF5807C9
:1007E0006807780719F410925104B5CFF90183E036
:1007F000F595E7958A95E1F7E05CFB4F8081880FDE
:10080000C416D506E606F70610F180832F5F3F4F2A
:10081000085F1F4F2832310589F64091440420912A
:10082000400480914104280F3327331F80914204F4
:10083000280F311D80914304820F932F911D99271A
:100840004817190681F681E08093510426CF816014
:10085000DCCFDB0114964D915C9115976D917C91E5
:10086000DC01ED91FC910280F381E02D0994AF92BF
:10087000BF92CF92DF92EF92FF920F931F93CF938D
:10088000DF936C017B018B01040F151FEB015E01EF
:10089000AE18BF08C017D10759F06991D601ED9184
:1008A000FC910190F081E02DC6010995892B79F723
:1008B000C501DF91CF911F910F91FF90EF90DF90D5
:1008C000CF90BF90AF900895FC01538D448D252F9C
:1008D00030E0842F90E0821B930B541710F0CF96DA
:1008E000089501970895FC01918D828D981761F00C
:1008F000A28DAE0FBF2FB11D5D968C91928D9F5F23
:100900009F73928F90E008958FEF9FEF0895FC0101
:10091000918D828D981731F0828DE80FF11D858DB4
:1009200090E008958FEF9FEF0895FC01918D228D47
:10093000892F90E0805C9F4F821B91098F739927CC
:10094000089581E793E00E94950421E0892B09F442
:1009500020E0822F089580E090E0892B29F00E940A
:10096000A10481110C9400000895FC01A48DA80F2E
:10097000B92FB11DA35ABF4F2C91848D90E00196E1
:100980008F739927848FA689B7892C93A089B18901
:100990008C91837080648C93938D848D981306C0A2
:1009A0000288F389E02D80818F7D80830895EF9206
:1009B000FF920F931F93CF93DF93EC0181E0888F19
:1009C0009B8D8C8D98131AC0E889F989808185FFE9
:1009D00015C09FB7F894EE89FF896083E889F9898B
:1009E00080818370806480839FBF81E090E0DF918D
:1009F000CF911F910F91FF90EF900895F62E0B8DE0
:100A000010E00F5F1F4F0F731127E02E8C8D8E119A
:100A10000CC00FB607FCFACFE889F989808185FF01
:100A2000F5CFCE010E94B504F1CFEB8DEC0FFD2F79
:100A3000F11DE35AFF4FF0829FB7F8940B8FEA89BC
:100A4000FB8980818062CFCFCF93DF93EC01888DCB
:100A50008823B9F0AA89BB89E889F9898C9185FD39
:100A600003C0808186FD0DC00FB607FCF7CF8C91C7
:100A700085FFF2CF808185FFEDCFCE010E94B504C6
:100A8000E9CFDF91CF9108952091A1023091A20288
:100A90002817390771F490919F028091A00298174E
:100AA00041F0E0919F02F0E0E15AFD4F808190E03B
:100AB00008958FEF9FEF0895EF92FF920F931F938A
:100AC000CF93DF93DC015C96ED90FC905D97E11491
:100AD000F10479F481E090E013969C938E93129741
:100AE00090E080E0DF91CF911F910F91FF90EF9008
:100AF00008955196ED91FC91529750968C91509794
:100B0000982F90950FB75E962C915E97122F1270CA
:100B100021FD6095F8942081112319F1282B208361
:100B2000E7012197F1F728E0462F50E0308160FF80
:100B30001AC0382B3083E7012197F1F7BA01759578
:100B40006795215089F7112381F080818923808363
:100B50000FBF5C968D919C910197F1F781E090E039
:100B6000C1CF2923DCCF3923E5CF9081892BEFCF6B
:100B70002091A1023091A2022817390761F48091D7
:100B8000A00220919F0290E0805C9F4F821B910900
:100B90008F739927089590E080E008952091A10235
:100BA0003091A20228173907B9F490919F028091E1
:100BB000A002981789F0E0919F02F0E0E15AFD4F02
:100BC000808120919F0230E02F5F3F4F2F733327AA
:100BD00020939F0290E008958FEF9FEF0895CF92AA
:100BE000DF92EF92FF920F931F93CF93DF93FC015D
:100BF000C48121E02093C802C0935E021092EC02EF
:100C00001092EB028485682B85E693E00E94C20176
:100C1000D091EB02D13208F092C00E94C3026B0166
:100C20007C0180913B03811165C082E080933B038E
:100C300081E080933D038FEF80933A0310925F032E
:100C4000D0935E03A8EAB2E0EEE3F3E080E0D813CD
:100C500085C01092600380916003CC0FC82BC093B5
:100C6000600380913C03813009F07CC010923C030A
:100C70000E94C3026B017C01809160038093BB00E2
:100C80008091EE029091EF02A091F002B091F102FA
:100C9000892B8A2B8B2B99F00E94C3020091EE02C4
:100CA0001091EF022091F0023091F1026C197D0950
:100CB0008E099F090617170728073907E0F1809169
:100CC000BC0083FDD9CF85EC8093BC000E94C30299
:100CD0006B017C0180913B03823009F445C0809117
:100CE0003A038F3F61F180913A03803241F1809164
:100CF0003A0325C08091EE029091EF02A091F0029C
:100D0000B091F102892B8A2B8B2B09F48ACF0E9498
:100D1000C3020091EE021091EF022091F002309197
:100D2000F1026C197D098E099F090617170728071C
:100D3000390708F076CF8091ED020E94660210928A
:100D4000EC021092EB021092C802DF91CF911F913A
:100D50000F91FF90EF90DF90CF9008959D91919328
:100D60008F5F75CF85EEB0CF8091EE029091EF024C
:100D7000A091F002B091F102892B8A2B8B2B09F400
:100D8000A9CF0E94C3020091EE021091EF022091C0
:100D9000F0023091F1026C197D098E099F09061746
:100DA00017072807390708F095CFC5CF089590E0B9
:100DB00080E008950F931F93CF938C01C62F0E945C
:100DC000EF056C2F6460C8010E94EF056C2F6B7FEC
:100DD000C8010E94EF0583EC90E00197F1F7CF91F5
:100DE0001F910F9108950F931F93CF93DF938C0161
:100DF000D62FC42F607F642B0E94DA0680E1D89F33
:100E0000B00111246C2BC801DF91CF911F910F917C
:100E10000C94DA06CF93DF93CDB7DEB728970FB6E1
:100E2000F894DEBF0FBECDBF98E0E6E0F1E0DE0152
:100E3000119601900D929A95E1F790913B049617C7
:100E400008F46FEF262F30E0220F331F41E050E00F
:100E50004C0F5D1F240F351FF9016081680F60681A
:100E600040E083E394E028960FB6F894DEBF0FBE0F
:100E7000CDBFDF91CF910C94F30640E061E083E3B6
:100E800094E00E94F3068BE39FE10197F1F78091D4
:100E90003C04882321F060E080E00C940A07089568
:100EA00041E00E94F30681E090E00895FB0101908B
:100EB0000020E9F73197AF01461B570BDC01ED919C
:100EC000FC910280F381E02D09940F931F93CF933F
:100ED000DF93EC010E9456078C0160E571E0CE01C2
:100EE0000E945607800F911FDF91CF911F910F91A4
:100EF00008950F931F93CF93DF93EC010E94290471
:100F00008C0160E571E0CE010E945607800F911FB1
:100F1000DF91CF911F910F91089585ED8093BC00D3
:100F20008091EE029091EF02A091F002B091F10257
:100F30000796A11DB11D23E0B695A79597958795B6
:100F40002A95D1F72091BC0024FD03C010923B03E9
:100F500008954091EE025091EF026091F00270917D
:100F6000F102452B462B472B69F30097A105B105EC
:100F700041F02AE22A95F1F700C00197A109B109D1
:100F8000E1CF8091ED020C9466020F931F93CF93F3
:100F9000DF93EC0188819981009759F02A813B8188
:100FA0002617370730F081E0DF91CF911F910F9125
:100FB00008958B016F5F7F4F0E940316009759F0D1
:100FC000998388831B830A832C813D81232B59F7C6
:100FD000FC011082E8CF80E0E7CFEF92FF920F9301
:100FE0001F93CF93DF936115710541F480E0DF918A
:100FF000CF911F910F91FF90EF90089541155105EA
:10100000B1F07B01EC010C811D81040F151FB801AB
:101010000E94C507882351F3288139818C819D81E5
:10102000B701820F931F0E94C9161D830C8381E0B4
:10103000DECFCF93DF93EC0188819981009711F087
:101040000E947A15198218821D821C821B821A82C4
:10105000DF91CF910895CF93DF93EC01FB010190D5
:101060000020E9F73197AF01461B570B0E94ED07AF
:10107000811103C0CE010E941908CE01DF91CF91EA
:101080000895CF93DF93EC01FB014481558160818A
:1010900071810E94ED07811103C0CE010E941908E1
:1010A000CE01DF91CF910895EF92FF920F931F939E
:1010B000CF93DF93EC017B018A01BA010E94C5073F
:1010C00081110BC0CE010E941908CE01DF91CF9192
:1010D0001F910F91FF90EF9008951D830C83B7012E
:1010E000888199810E94C916F0CFEF92FF920F93E9
:1010F0001F93CF93DF93CDB7DEB7A1970FB6F894C8
:10110000DEBF0FBECDBF7C01CB01BA01F70111825A
:10111000108213821282158214828E010F5F1F4F7C
:1011200022E044E00E94B1100097C9F0FC01019058
:101130000020E9F73197AF01481B590BBC01C701EB
:101140000E945408A1960FB6F894DEBF0FBECDBF23
:10115000DF91CF911F910F91FF90EF900895C701FC
:101160000E941908EFCFFB01DC0111961C921E9220
:1011700013961C921E92129715961C921E9214970B
:101180008617970749F0608171816115710521F01B
:10119000448155810C9454080895FC0111821082F9
:1011A0001382128215821482FB0101900020E9F75C
:1011B0003197AF01461B570B0C945408FC018081FA
:1011C0009181009711F00C947A1508951F920F9257
:1011D0000FB60F9211242F933F934F935F936F930A
:1011E0007F938F939F93AF93BF93EF93FF938091E0
:1011F000B900887F803609F44AC0F0F5883209F4D6
:10120000A7C018F5803109F49BC0B8F4882309F40D
:10121000F9C0883009F494C0FF91EF91BF91AF916C
:101220009F918F917F916F915F914F913F912F91FE
:101230000F900FBE0F901F901895883109F488C049
:10124000803251F780933A0314C0803409F49DC072
:1012500040F48033B9F38833F9F680933A0385EC90
:10126000B0C0803509F485C0883509F496C088344B
:1012700099F60E948D07D0CF883909F48CC038F5D3
:10128000883729F050F4883611F0803729F683E04A
:1012900080933B031092390357C0883809F47BC010
:1012A000803919F0803809F0B7CF80913903803246
:1012B00008F071C0E091390381E08E0F809339030B
:1012C0008091BB00F0E0E75EFC4F80833DC0803B37
:1012D00039F0E0F4803A09F479C0883A09F09CCFFB
:1012E00084E080933B031092160310921503E09163
:1012F0001303F091140309958091150381110FC018
:1013000081E0809315031092F30209C0803C09F438
:10131000A6CF883C09F4A3CF883B09F07DCFE091AC
:10132000160381E08E0F80931603F0E0ED50FD4F21
:1013300080818093BB00909116038091150329C092
:10134000809160038093BB0085EC8093BC0064CFE8
:1013500090915F0380915E03981758F5E0915F03C9
:1013600081E08E0F80935F03F0E0E25CFC4F8081B0
:10137000E9CFE0915F0381E08E0F80935F0380915E
:10138000BB00F0E0E25CFC4F808390915F038091B2
:101390005E039817C8F285E8D8CFE0915F0381E03B
:1013A0008E0F80935F038091BB00F0E0E25CFC4F06
:1013B000808380913D0381115CCF81E080933C0369
:1013C00084EA8093BC0010923B0326CF85EC809387
:1013D000BC0010923B0380913903803230F4E091DD
:1013E0003903F0E0E75EFC4F10826091390370E052
:1013F000E0911703F091180389E193E009951092A9
:1014000039030ACF10923A0334CF1F920F920FB6CE
:101410000F9211242F933F938F939F93AF93BF937A
:101420008091610390916203A0916303B091640382
:101430003091A30223E0230F2D3758F50196A11D0B
:10144000B11D2093A3028093610390936203A09344
:101450006303B09364038091A4029091A502A091CC
:10146000A602B091A7020196A11DB11D8093A4020E
:101470009093A502A093A602B093A702BF91AF914B
:101480009F918F913F912F910F900FBE0F901F90C2
:10149000189526E8230F0296A11DB11DD2CF1F92E9
:1014A0000F920FB60F9211242F933F934F935F9398
:1014B0006F937F938F939F93AF93BF93EF93FF931C
:1014C00081E793E00E94B504FF91EF91BF91AF9146
:1014D0009F918F917F916F915F914F913F912F914C
:1014E0000F900FBE0F901F9018951F920F920FB67E
:1014F0000F9211242F938F939F93EF93FF93E0917B
:101500008103F09182038081E0918703F091880349
:1015100082FD1BC0908180918A038F5F8F73209121
:101520008B03821741F0E0918A03F0E0EF58FC4F03
:10153000958F80938A03FF91EF919F918F912F91C7
:101540000F900FBE0F901F9018958081F4CF1F92BF
:101550000F920FB60F9211242F933F934F935F93E7
:101560006F937F938F939F93AF93BF93EF93FF936B
:10157000E091A102F091A202309749F0A685B785CB
:101580008585968D91FF14C09C918923A1F4FF91CC
:10159000EF91BF91AF919F918F917F916F915F91EB
:1015A0004F913F912F910F900FBE0F901F90189564
:1015B0009C91892361F7A389B4899C918589809541
:1015C00089238C93868997890197F1F7608D718DB6
:1015D000A685B785558538E020E0CB010197F1F766
:1015E000822F90E095958795282F4C91452309F0FF
:1015F0002068315091F7868D81FD20958091A00261
:1016000090E001968F73992730919F02381799F0D7
:10161000A091A002B0E0A15ABD4F2C938093A002EC
:10162000828D938D0197F1F7A389B4898C91958967
:10163000892B8C93ACCF868D8160868FF1CF1092F1
:1016400068031092670388EE93E0A0E0B0E0809317
:10165000690390936A03A0936B03B0936C0322E138
:1016600031E0309366032093650310927403109267
:1016700073038093750390937603A0937703B093DD
:10168000780324E231E0309372032093710325EC58
:1016900030E030937E0320937D0324EC30E03093E0
:1016A000800320937F0320EC30E03093820320936B
:1016B000810321EC30E0309384032093830322ECF8
:1016C00030E0309386032093850326EC30E030939E
:1016D00088032093870310928A0310928B03109241
:1016E0008C0310928D0322E0209345043BE030935D
:1016F0004604EAEAF1E0E491E0934704E6E9F1E028
:10170000E491E093480440E85EE360E070E04093D9
:101710004D0450934E0460934F0470935004109204
:1017200036041092350448E451E050933404409359
:10173000330410923C0437E23093370430E13093A5
:101740003D0420933E0410923F041092170410921F
:1017500016048093180490931904A0931A04B0936C
:101760001B0486E391E09093150480931404109277
:101770002B0410922A0410922D0410922C04109223
:101780002F0410922E0410923104109230046091B4
:1017900032046E7F6D7F609332046695617081E0E4
:1017A00068278CE00E941A0261E08CE00E948702A8
:1017B000E4EBF1E0E491E0932404E0EAF1E0E49169
:1017C000F0E0EE0FFF1FE657FE4F85919491909346
:1017D00026048093250460E08DE00E9487028091BA
:1017E000320481FD04C061E08DE00E941A028DE0A8
:1017F00080932004E5EBF1E0E491E0932104E1EA39
:10180000F1E0E491F0E0EE0FFF1FE058FE4F85910C
:101810009491909323048093220463E571E08EE019
:1018200094E00C94CD08CF93DF93CDB7DEB76897E3
:101830000FB6F894DEBF0FBECDBF789484B582603A
:1018400084BD84B5816084BD85B5826085BD85B564
:10185000816085BD80916E00816080936E001092E2
:10186000810080918100826080938100809181005D
:1018700081608093810080918000816080938000EE
:101880008091B10084608093B1008091B00081604C
:101890008093B00080917A00846080937A00809178
:1018A0007A00826080937A0080917A0081608093D0
:1018B0007A0080917A00806880937A001092C1004B
:1018C00062E0809145040E9487022FB7F8948091CE
:1018D000610390916203A0916303B09164032FBFF1
:1018E000805D9740A109B1098093490490934A040F
:1018F000A0934B04B0934C0487E38093520410925E
:10190000EA021092E9021092EC021092EB020E949D
:10191000480289E691E090931403809313038AE6CA
:1019200091E09093180380931703109238048091EC
:101930003E04823018F098E09093380480933B0482
:1019400062E370E080E090E00E94E80260913F0472
:1019500083E394E00E94EF0568EE73E080E090E09E
:101960000E94E80260E383E394E00E94DA060BE45D
:1019700016E4C8010197F1F760E383E394E00E9465
:10198000DA06C8010197F1F760E383E394E00E946F
:10199000DA0683E592E00197F1F760E283E394E0F1
:1019A0000E94DA0660913804606240E083E394E0CC
:1019B0000E94F30684E08093390440E06CE083E306
:1019C00094E00E94F3060E943D0712E010933A044F
:1019D00040E066E083E394E00E94F30640E062E0CA
:1019E00083E394E00E94F3068BE39FE10197F1F714
:1019F00060E083E00E94870261E084E00E94870249
:101A000061E085E00E94870261E086E00E94870233
:101A100061E087E00E948702E0918103F0918203F8
:101A20001083E0917D03F0917E031082E0917F03AB
:101A3000F09180038FEC808310928903E0918503FD
:101A4000F091860386E08083E0918303F091840324
:101A5000808180618083E0918303F09184038081A1
:101A600088608083E0918303F091840380818068A3
:101A70008083E0918303F091840380818F7D808354
:101A800010922F0410922E0410922D0410922C0408
:101A900010922B0410922A048DE991E09093310466
:101AA0008093300490912004963108F047C02DEBCC
:101AB00030E030932B0420932A042BE931E030935B
:101AC0002D0420932C042CE231E030932F0420933A
:101AD0002E042091680084E0983048F031E09E3078
:101AE00008F430E081E001C0880F3A95EAF7822BD4
:101AF000809368002DE630E0983050F02BE630E01F
:101B00009E3030F02CE630E0963110F030E020E0EE
:101B10003093280420932704292F30E0983008F0D0
:101B2000DBC081E001C0880F9A95EAF78093290411
:101B300080913004909131040197F1F780912E0447
:101B400090912F04892B49F1E091A102F091A2021A
:101B500084E0E431F80709F1309739F0A389B489BA
:101B60009C918589809589238C93809132048E7F06
:101B7000809332041092A00210929F0284E194E0BC
:101B80009093A2028093A102E0912704F09128048F
:101B9000808190912904892B808360E080E00E94FD
:101BA0000A0761E671E083E394E00E94560761E072
:101BB00085E00E940A076FE671E083E394E00E94EB
:101BC000560768EE73E080E090E00E94E80268E764
:101BD00071E0CE0107960E94CD086EE074E0CE0160
:101BE0000D960E94B30866E871E084E194E00E94DB
:101BF000650764EF71E080E090E00E94E80269E828
:101C000071E084E194E00E94650764EF71E080E098
:101C100090E00E94E80263E971E0CE0101960E9423
:101C2000CD08BE01635F7F4FCE0101960E9441083F
:101C30006CE971E00E942B08BC0184E194E00E94F1
:101C40007907CE0101960E94DE0864EF71E080E022
:101C500090E00E94E802BE01695F7F4F84E194E05A
:101C60000E94290464EF71E080E090E00E94E802A5
:101C70006AE184E194E00E945C0568E873E180E039
:101C800090E00E94E802CE010D960E94DE08CE018F
:101C900007960E94DE084BEA242E41E0342E57E9D5
:101CA000A52E51E0B52E60E0862E60E0962E0E94B3
:101CB0003D070E941A03882341F0809146048C302E
:101CC00009F46FC0B0F48B3069F1C12CD12C20EC39
:101CD000E22E2FE7F22E50C09E3040F428503109FA
:101CE00081E001C0880F2A95EAF720CF2E503109F4
:101CF000F7CF8551823048F710914204612F70E090
:101D0000762F662766277F7780914304682B90E0C3
:101D100080E00E940B132DEC3CEC4CEC5DE30E9448
:101D20006C135BC06091420470E090E080E00E9420
:101D30000B136B017C011091430417FF0AC0AC0127
:101D40009B0160E070E080E89FEB0E9467146B01EC
:101D50007C011F70612F70E090E080E00E940D1305
:101D60002DEC3CEC4CEC5DE30E946C13A70196015A
:101D70000E9468146B017C010E941A03882351F0B1
:101D8000809146048B3030F08D3080F18551823067
:101D900008F49DC0412C512C90EC692E9FE7792EC0
:101DA00043C010914204612F70E090E080E00E94F7
:101DB0000B136B017C01609143046F7070E090E045
:101DC00080E00E940D132DEC3CEC4CEC5DE30E9496
:101DD0006C13A70196010E9468146B017C0117FF28
:101DE000CBCFF7FAF094F7F8F094C6CF60914104A6
:101DF00070E090E080E00E940D132DEC3CEC4CEC88
:101E00005DE30E946C132B013C016091400470E083
:101E100090E080E00E940D139B01AC01C301B20170
:101E20000E9468142B013C01EFE6F1E08491F1017E
:101E30000491F5011491112309F45BC081110E94F2
:101E4000F101E12FF0E0EE0FFF1FE058FE4FA591EA
:101E5000B4918C91082391E080E009F490E0092F7F
:101E6000182F60E080E00E940A07A7019601C701D1
:101E7000B6010E94D914811108C0A3019201C301C7
:101E8000B2010E94D9148823B9F16EE971E081E7AB
:101E900093E00E94650763EB71E083E394E00E94A6
:101EA000560761E084E00E941A026EEE72E080E064
:101EB00090E00E94E8028114910409F4F8CE0E9497
:101EC000A104882309F4F3CE0E940000F0CE6091B3
:101ED00040047091410476276727762790E080E0E0
:101EE0000E940B132DEC3CEC4CEC5DE30E946C1358
:101EF00099CF10E000E0B5CFB801012E000C880B9F
:101F0000990B0E940D139B01AC010E94D9148823E8
:101F100049F064EC71E081E793E00E94650768EDA9
:101F200071E0BBCF60E084E00E941A0260E080E0D4
:101F30000E940A07B701A601CE0101960E9475080A
:101F400069EE71E0CE0107960E94CD08BE016F5F79
:101F50007F4FCE0107960E94410860EF71E00E941A
:101F60002B08BC01CE0143960E94B308CE01079610
:101F70000E94DE08CE0101960E94DE08BE016D5E61
:101F80007F4F83E394E00E94290420E030E040EF9B
:101F900051E4C701B6010E94D414181654F020E091
:101FA00030E040E251E4C701B6010E94061387FF0A
:101FB000A6C061E085E00E941A0264EF71E0CE01E4
:101FC00001960E94CD08BE016D5E7F4FCE01019645
:101FD0000E944108BC0181E793E00E947907CE018D
:101FE00001960E94DE0861E080E00E940A07B301CA
:101FF000A201CE0101960E9475086FE072E0CE0149
:1020000007960E94CD08BE016F5F7F4FCE010796F5
:102010000E94410867E172E00E942B08BC01CE01DA
:102020000D960E94B308CE0107960E94DE08CE01ED
:1020300001960E94DE08BE01635F7F4F83E394E058
:102040000E94290420E030E040E752E4C301B201DD
:102050000E94D414181654F020E030E040E252E41C
:10206000C301B2010E94061387FF4EC061E086E003
:102070000E941A0269E172E0CE0101960E94CD0829
:10208000BE01635F7F4FCE0101960E944108BC01F3
:1020900081E793E00E947907CE0101960E94DE0855
:1020A000CE010D960E94DE08CE0143960E94DE0806
:1020B0006CED75E080E090E00E94E8020E943D0730
:1020C00060E080E00E940A07012B19F161E372E0F1
:1020D00081E793E00E94650762E472E083E394E0A5
:1020E0000E94560761E087E00E941A026CED75E0DD
:1020F00080E090E00E94E8020E943D07D6CE60E0BA
:1021000085E00E941A026FCF60E086E00E941A020A
:10211000C7CF62E572E083E394E00E94560760E077
:10212000E2CF8EE094E00E94DE0886E391E0909397
:102130001504809314048091A1029091A20284510D
:10214000944071F4E0912704F091280490818091EB
:1021500029048095892380831092A2021092A10203
:102160000895EF920F931F93CF93DF93E80134E02C
:1021700047FD34E1042E000C550B57FF03C0519569
:1021800041955109E32E022F242FAE010E94CF105A
:10219000CE01DF91CF911F910F91EF900895A9E0AB
:1021A000B0E0E5EDF0E10C9430146A01F22EB02EAF
:1021B000102FFBE3AF2EA01608F41BE31F5F012FC7
:1021C00027E0AE014F5F5F4F0E942E12BC01898154
:1021D000982F9970913009F43FC09BE2E1FC04C054
:1021E0009E2D9170E0FC3AC05E2D5071E82FE87092
:1021F00083FF46C084E0911101C083E0EF2DE81B0E
:102200008F1508F0E0E0D6018E2F20E2552351F122
:10221000992329F0D6019C93C60101966C01960181
:102220002D5F3F4FE2FE24C08EE4D6018C9391E4F3
:1022300011969C93119712968C93D9018E2F90E250
:1022400081111BC0E20FF32FF11D10828EEF9FEF63
:102250002996ECE00C944C149DE2C6CF90E2C4CFDA
:102260002D9381508111FCCFCE0ED11CE0E0D0CF58
:102270008EE6D6018C9391E6DBCF9D938150E0CF23
:10228000482F447082FF3DC084E0911101C083E07B
:102290008F1510F4EF2DE81BD6018E2F20E2552369
:1022A00009F1992329F0D6019C93C60101966C018E
:1022B00096012D5F3F4FE2FE1BC089E4D6018C934F
:1022C0008EE411968C93119786E412968C93D90123
:1022D0008E2F90E2882309F4B5CF9D938150FACFD9
:1022E0002D9381508111FCCFCE0ED11CE0E0D9CFCF
:1022F00089E6D6018C938EE611968C93119786E62B
:10230000E4CF9B0177FF02C030E020E0A1E0B0E025
:10231000911102C0B0E0A0E0F9013196AE0FBF1FED
:102320008B2C912CBB2009F461C05401EFEFAE1A45
:10233000BE0AAA0DBB1DFA161B0619F014F04F2D8C
:102340004A1B511188C0E3FC59C07601A42FB0E2AA
:10235000A1114FC0C40ED11C992309F45BC040E009
:10236000D6011196F60190836D01552309F448C0FA
:10237000012F060F9A81582F507184FF03C09133AB
:1023800009F4015010160CF047C0093008F008E0BD
:10239000EEE2FE2E5B01A01AB108850191948194B2
:1023A00091082F3F320729F4D601FC92F6013196AD
:1023B0006F016217730794F1021713077CF5DB01B5
:1023C000A21BB30BAA24A394B12CAC0EBD1EAA0D64
:1023D000BB1D11968C9121503109D60111962815FB
:1023E0003905F4F0F60180836D01DBCFB12CA12C0F
:1023F000A0CFF701B1937F01A150AACF9111B0CF27
:10240000D601942F50E302C05D9391509111FCCFFF
:10241000C40ED11C40E0ACCF01E0BACF80E3DBCFEB
:102420006217730731F4963388F4953311F455230A
:1024300069F0F6018083FD01842F90E2811108C0CC
:10244000A40FB11D1C9290E080E002CF81E3F1CF98
:1024500091938150F3CF911183CF8ACF283008F028
:1024600027E03327DA01990F311D87FD916000962F
:102470006105710539F432602E5F3D9330E32A9592
:10248000E1F708959F3F30F080387105610509F04C
:102490003C5F3C5F3D93913008F08068911DDF9375
:1024A000CF931F930F93FF92EF92192F987F9695DA
:1024B000E92F96959695E90FFF27EE53FF4F992741
:1024C0003327EE24FF24A701E70105900894079421
:1024D00028F4360FE71EF81E491F511D660F771F9F
:1024E000881F991F0694A1F70590079428F4E70E1A
:1024F000F81E491F561FC11D770F881F991F661FA1
:102500000694A1F70590079428F4F80E491F561F6A
:10251000C71FD11D880F991F661F771F0694A1F74B
:102520000590079420F4490F561FC71FD81F990F15
:10253000661F771F881F0694A9F78491109517705E
:1025400041F0D695C79557954795F794E7941A9516
:10255000C1F7E8E6F0E06894159015913591659122
:10256000959105907FE27395E118F10A430B560BA4
:10257000C90BD009C0F7E10CF11E431F561FC91F3C
:10258000D01D7EF4703311F48A95E6CFE8940150A3
:1025900030F0080F0AF40027021708F4202F2395C3
:1025A000022F7A3328F079E37D932A95E9F710C05A
:1025B0007D932A9589F60694979567953795179593
:1025C0001794E118F10A430B560BC90BD00998F088
:1025D00023957E9173957A3308F070E37C932013F2
:1025E000B8F77E9170617D9330F0839571E37D93B0
:1025F00070E32A95E1F71124EF90FF900F911F915E
:10260000CF91DF91992787FD909508950E944813F7
:1026100008F481E00895E89409C097FB3EF4909592
:102620008095709561957F4F8F4F9F4F9923A9F0AB
:10263000F92F96E9BB279395F6958795779567953A
:10264000B795F111F8CFFAF4BB0F11F460FF1BC07E
:102650006F5F7F4F8F4F9F4F16C0882311F096E911
:1026600011C0772321F09EE8872F762F05C06623BF
:1026700071F096E8862F70E060E02AF09A95660F78
:10268000771F881FDAF7880F9695879597F9089531
:10269000990F0008550FAA0BE0E8FEEF1616170673
:1026A000E807F907C0F012161306E407F50798F0DB
:1026B000621B730B840B950B39F40A2661F0232BF4
:1026C000242B252B21F408950A2609F4A140A69570
:1026D0008FEF811D811D08950E947F130C94F013CC
:1026E0000E94E21338F00E94E91320F0952311F0C4
:1026F0000C94D9130C94DF1311240C9424140E940D
:10270000011470F3959FC1F3950F50E0551F629F20
:10271000F001729FBB27F00DB11D639FAA27F00D3A
:10272000B11DAA1F649F6627B00DA11D661F829F61
:102730002227B00DA11D621F739FB00DA11D621F46
:10274000839FA00D611D221F749F3327A00D611D63
:10275000231F849F600D211D822F762F6A2F112445
:102760009F5750409AF0F1F088234AF0EE0FFF1F78
:10277000BB1F661F771F881F91505040A9F79E3FCF
:10278000510580F00C94D9130C9424145F3FE4F3AA
:10279000983ED4F3869577956795B795F795E79525
:1027A0009F5FC1F7FE2B880F911D9695879597F92E
:1027B000089597F99F6780E870E060E008959FEFC3
:1027C00080EC089500240A941616170618060906C8
:1027D000089500240A941216130614060506089597
:1027E000092E0394000C11F4882352F0BB0F40F41F
:1027F000BF2B11F460FF04C06F5F7F4F8F4F9F4F5F
:10280000089557FD9058440F551F59F05F3F71F0E0
:102810004795880F97FB991F61F09F3F79F0879547
:102820000895121613061406551FF2CF4695F1DFD0
:1028300008C0161617061806991FF1CF8695710560
:10284000610508940895E894BB2766277727CB0194
:1028500097F908952F923F924F925F926F927F92D5
:102860008F929F92AF92BF92CF92DF92EF92FF92A0
:102870000F931F93CF93DF93CDB7DEB7CA1BDB0B4C
:102880000FB6F894DEBF0FBECDBF09942A883988F1
:1028900048885F846E847D848C849B84AA84B984F8
:1028A000C884DF80EE80FD800C811B81AA81B98104
:1028B000CE0FD11D0FB6F894DEBF0FBECDBFED0118
:1028C0000895EE0FFF1F0590F491E02D09945058E4
:1028D000BB27AA270E947F140C94F0130E94E213D6
:1028E00038F00E94E91320F039F49F3F19F426F4E0
:1028F0000C94DF130EF4E095E7FB0C94D913E92F49
:102900000E94011458F3BA176207730784079507EA
:1029100020F079F4A6F50C9423140EF4E0950B2E18
:10292000BA2FA02D0B01B90190010C01CA01A00121
:102930001124FF27591B99F0593F50F4503E68F17C
:102940001A16F040A22F232F342F4427585FF3CFBD
:10295000469537952795A795F0405395C9F77EF48E
:102960001F16BA0B620B730B840BBAF09150A1F0D7
:10297000FF0FBB1F661F771F881FC2F70EC0BA0F5D
:10298000621F731F841F48F4879577956795B795E5
:10299000F7959E3F08F0B0CF9395880F08F09927E0
:1029A000EE0F9795879508950E94481308F48FEFCE
:1029B00008950E944813880B990B08950F931F9355
:1029C000CF93DF938230910510F482E090E0E091A4
:1029D0005504F091560430E020E0B0E0A0E03097DC
:1029E00099F42115310509F44AC0281B390B24300C
:1029F0003105D8F58A819B816115710589F1FB014B
:102A000093838283FE0111C0408151810281138131
:102A100048175907E0F04817590799F4109761F0E3
:102A200012960C93129713961C933296CF01DF9156
:102A3000CF911F910F910895009355041093560460
:102A4000F4CF2115310551F04217530738F0A90191
:102A5000DB019A01BD01DF01F801C1CFEF01F9CF20
:102A60009093560480935504CDCFFE01E20FF31FDF
:102A7000819391932250310939832883D7CF2091B4
:102A8000530430915404232B41F4209102013091DE
:102A9000030130935404209353042091000130919A
:102AA00001012115310541F42DB73EB740910401D4
:102AB00050910501241B350BE0915304F09154040F
:102AC000E217F307A0F42E1B3F0B2817390778F005
:102AD000AC014E5F5F4F2417350748F04E0F5F1F64
:102AE0005093540440935304819391939FCFF0E00B
:102AF000E0E09CCFCF93DF930097E9F0FC013297A1
:102B000013821282A0915504B0915604ED0130E079
:102B100020E01097A1F420813181820F931F209132
:102B20005304309154042817390709F061C0F09319
:102B30005404E0935304DF91CF910895EA01CE1736
:102B4000DF07E8F54A815B819E0141155105B1F728
:102B5000E901FB83EA8349915991C40FD51FEC1712
:102B6000FD0761F4808191810296840F951FE90130
:102B700099838883828193819B838A83F0E0E0E05C
:102B800012968D919C9113970097B9F52D913C91D8
:102B90001197CD010296820F931F2091530430911B
:102BA00054042817390739F6309751F51092560416
:102BB00010925504B0935404A0935304BCCFD38314
:102BC000C28340815181840F951FC817D90761F4D2
:102BD0004E5F5F4F88819981480F591F5183408311
:102BE0008A819B81938382832115310509F0B0CFBF
:102BF000F0935604E09355049ECFFD01DC01C0CF55
:102C000013821282D7CFB0E0A0E0E9E0F6E10C94A5
:102C10002C148C01009751F4CB010E94DE148C011E
:102C2000C801CDB7DEB7E0E10C944814FC01E60F13
:102C3000F71F9C0122503109E217F30708F49DC0E9
:102C4000D901CD91DC911197C617D70798F0C530FF
:102C5000D10530F3CE0104978617970708F3C61BFA
:102C6000D70B2297C193D1936D937C93CF010E9490
:102C70007A15D6CF5B01AC1ABD0A4C018C0E9D1E95
:102C8000A0915504B0915604512C412CF12CE12C0B
:102C9000109731F58091530490915404881599054B
:102CA00009F05CC04616570608F058C08091000134
:102CB00090910101009741F48DB79EB740910401B6
:102CC00050910501841B950BE817F90708F055C0D2
:102CD000F0935404E0935304F90171836083A0CF0F
:102CE0008D919C91119712966C90129713967C90EF
:102CF0001397A815B90559F56C0142E0C40ED11C13
:102D0000CA14DB0420F1AC014A195B09DA011296FE
:102D1000159780F06282738251834083D9016D934D
:102D20007C93E114F10471F0D7011396FC93EE93B8
:102D3000129776CF22968C0F9D1FF9019183808385
:102D4000F301EFCFF0935604E093550469CF481692
:102D5000590608F42C017D01D3019ACFCB010E94C2
:102D6000DE147C01009749F0AE01B8010E94C01644
:102D7000C8010E947A15870153CF10E000E050CFC0
:102D8000FB01DC0102C001900D9241505040D8F788
:102D90000895FB01DC0101900D920020E1F70895F8
:102DA00010E0CFEDD0E004C0FE010E946114219636
:0A2DB000C03ED107C9F7F894FFCF29
:102DBA000000570480000000400014005400000086
:102DCA000000C2019501D7066B018E017B016C01DF
:102DDA0000000000D7043704640424059504730432
:102DEA008704000000005C053704D7066B01B805AC
:102DFA00CE0544050000000050073704D706D60662
:102E0A000D0A002B32353537373334323233383105
:102E1A0000477261696E2053746F72616765004D75
:102E2A006F6E69746F7221005465737420666F72D5
:102E3A0020534D53210041540041542B434D4746E2
:102E4A003D310041542B434D47533D312200444804
:102E5A00542073656E736F72206174206661756C9D
:102E6A007421004E6F204448542072656164696E73
:102E7A00677321005049522073656E736F72206127
:102E8A0074206661756C74004E6F2050495220643C
:102E9A006574656374696F6E0054656D703A2000DD
:102EAA00C2B0430054656D706572617475726520B5
:102EBA006F7574206F662072616E67652C200048FA
:102ECA00756D69643A2000250048756D69646974F6
:102EDA0079206F7574206F662072616E67652C2089
:102EEA00004D6F74696F6E20646574656374656400
:102EFA002100526F64656E742070726573656E741A
:0E2F0A0021004E6F206D6F74696F6E21000004
:00000001FF
