:100000000C94E0000C9408010C9408010C948508F1
:100010000C9485080C9485080C9408010C94080134
:100020000C9408010C9408010C9408010C9408012C
:100030000C9408010C9408010C9408010C9408011C
:100040000C94E3070C9408010C9453080C942D08AD
:100050000C9408010C9408010C9408010C940801FC
:100060000C9408010C94080100407A10F35A00A087
:10007000724E18090010A5D4E80000E87648170071
:1000800000E40B54020000CA9A3B000000E1F505B1
:10009000000080969800000040420F000000A086FB
:1000A00001000000102700000000E803000000002D
:1000B0006400000000000A000000000001000000D1
:1000C00000002C76D888DC674F0823DFC1DFAE59EB
:1000D000E1B1B796E5E3E453C63AE651997696E87E
:1000E000E6C28426EB898C9B62ED407C6FFCEFBC02
:1000F0009C9F40F2BAA56FA5F490055A2AF75C932D
:100100006B6CF9676DC11BFCE0E40D47FEF520E662
:10011000B500D0ED902E0300943577050080841E45
:10012000080000204E0A000000C80C333333330FA0
:10013000986E12831141EF8D2114893BE65516CF3D
:10014000FEE6DB18D1844B381BF77C1D901DA4BB49
:10015000E424203284725E228100C9F124ECA1E5FE
:100160003D2700000000240027002A0000000008AE
:10017000000201000003040700000000000000006E
:1001800000000000230026002900000000002500D8
:1001900028002B00040404040404040402020202E4
:1001A000020203030303030301020408102040803A
:1001B000010204081020010204081020FD084A0E64
:1001C00011241FBECFEFD8E0DEBFCDBF23E0A4E5F2
:1001D000B2E001C01D92A139B207E1F712E0A0E040
:1001E000B1E0E6E3F9E202C005900D92A435B10753
:1001F000D9F710E0CFEDD0E004C02197FE010E94B6
:100200001A12CE3DD107C9F70E94320A0C948E14FF
:100210000C940000CF92DF92EF92FF92CF93DF9386
:10022000B0918103A0E08111AB2F8091820390E017
:10023000880F991FAC0140585E4FC0908703D09043
:100240008803E0908903F0908A0330E020E0FA010F
:10025000C591D491E881B90190E080E0EB23EA13E5
:100260000AC02F5F3F4F6C157D058E059F0578F303
:100270006FEF7FEFCB01DF91CF91FF90EF90DF9099
:10028000CF900895833081F028F4813099F0823046
:10029000A9F008958730A9F08830C9F08430B1F40E
:1002A000809180008F7D03C0809180008F77809344
:1002B0008000089584B58F7784BD089584B58F7DBF
:1002C000FBCF8091B0008F778093B000089580912C
:1002D000B0008F7DF9CF1F93CF93DF93282F30E0AD
:1002E000F901E459FE4F8491F901E855FE4FD4918C
:1002F000F901EC56FE4FC491CC23A9F0162F8111C1
:100300000E944201EC2FF0E0EE0FFF1FE657FE4F78
:10031000A591B4918FB7F894EC91111108C0D095C4
:10032000DE23DC938FBFDF91CF911F910895DE2BE9
:10033000F8CFCF93DF9390E0FC01E855FE4F249176
:100340008C569E4FFC0184918823C9F090E0880F61
:10035000991FFC01EE59FE4FA591B491FC01E6579F
:10036000FE4FC591D49161110DC09FB7F8948C9147
:10037000209582238C938881282328839FBFDF9137
:10038000CF910895623051F49FB7F8943C91822F39
:10039000809583238C93E8812E2BEFCF8FB7F89431
:1003A000EC912E2B2C938FBFEACF3FB7F89480911E
:1003B000990290919A02A0919B02B0919C0226B55D
:1003C000A89B05C02F3F19F00196A11DB11D3FBF8D
:1003D000BA2FA92F982F8827BC01CD01620F711D5C
:1003E000811D911D42E0660F771F881F991F4A9556
:1003F000D1F708958F929F92AF92BF92CF92DF92E2
:10040000EF92FF924B015C010E94D5016B017C01D0
:100410000E94D5016C197D098E099F09683E7340C1
:1004200081059105A8F321E0821A9108A108B1087D
:1004300088EEC80E83E0D81EE11CF11C81149104E3
:10044000A104B10429F7FF90EF90DF90CF90BF9007
:10045000AF909F908F900895CF92DF92EF92FF928E
:100460000F931F93CF93DF93CDB7DEB7C054D14026
:100470000FB6F894DEBF0FBECDBF2FB7F8948091B2
:100480009D0290919E02A0919F02B091A0022FBF69
:10049000409183035091840360918503709186039A
:1004A0008C019D01041B150B260B370BB901A8010C
:1004B000403D57406105710590F480918B03C05C0D
:1004C000DE4F0FB6F894DEBF0FBECDBFDF91CF91E8
:1004D0001F910F91FF90EF90DF90CF900895809340
:1004E000830390938403A0938503B09386031092B3
:1004F0007E0310927D0310927C0310927B03109276
:100500007A0362E080917F030E94990161E070E0CC
:1005100080E090E00E94FA0161E080917F030E94F8
:10052000990160E080917F030E946B0180918003BC
:100530008551823020F58BE291E10197F1F762E07D
:1005400080917F030E94990180918C0390E082301A
:10055000910538F0880F991F880F991F059701970B
:10056000F1F7F89480E00E940A016F3F7F4F8F4FB0
:100570009F4F61F410928B03789480E0A0CF64E1E8
:1005800070E080E090E00E94FA01D9CF81E00E9403
:100590000A016F3F7F4F8F4F9F4F61F38E010F5FB7
:1005A0001F4F6E018FEBC81A8EEFD80A780180E0DA
:1005B0000E940A01F701608371838283938381E043
:1005C0000E940A01F7016483758386839783F8E0AC
:1005D000EF0EF11CEC14FD0451F7789430E020E0AC
:1005E000F801C080D180E280F3804481558166812A
:1005F0007781FFEFCF16DF06EF06FF0631F04F3FA2
:100600008FEF58076807780719F410928B03B5CF5E
:10061000F90183E0F595E7958A95E1F7E658FC4FF7
:100620008081880FC416D506E606F70610F1808390
:100630002F5F3F4F085F1F4F2832310589F64091E9
:100640007E0320917A0380917B03280F3327331F89
:1006500080917C03280F311D80917D03820F932FA1
:10066000911D99274817190681F681E080938B0325
:1006700026CF8160DCCFDB0114964D915C911597FC
:100680006D917C91DC01ED91FC910280F381E02D74
:100690000994AF92BF92CF92DF92EF92FF920F93A5
:1006A0001F93CF93DF936C017B018B01040F151F08
:1006B000EB015E01AE18BF08C017D10759F0699170
:1006C000D601ED91FC910190F081E02DC6010995D4
:1006D000892B79F7C501DF91CF911F910F91FF9081
:1006E000EF90DF90CF90BF90AF900895FC01538DB5
:1006F000448D252F30E0842F90E0821B930B5417FC
:1007000010F0CF96089501970895FC01918D828D88
:10071000981761F0A28DAE0FBF2FB11D5D968C9121
:10072000928D9F5F9F73928F90E008958FEF9FEF60
:100730000895FC01918D828D981731F0828DE80F1C
:10074000F11D858D90E008958FEF9FEF0895FC01D6
:10075000918D228D892F90E0805C9F4F821B9109A3
:100760008F739927089581EA92E00E94A70321E000
:10077000892B09F420E0822F089580E090E0892BF6
:1007800029F00E94B30381110C9400000895FC012C
:10079000A48DA80FB92FB11DA35ABF4F2C91848DE2
:1007A00090E001968F739927848FA689B7892C933F
:1007B000A089B1898C91837080648C93938D848D92
:1007C000981306C00288F389E02D80818F7D808395
:1007D0000895EF92FF920F931F93CF93DF93EC0155
:1007E00081E0888F9B8D8C8D98131AC0E889F989D8
:1007F000808185FF15C09FB7F894EE89FF896083DB
:10080000E889F98980818370806480839FBF81E05B
:1008100090E0DF91CF911F910F91FF90EF9008959D
:10082000F62E0B8D10E00F5F1F4F0F731127E02E78
:100830008C8D8E110CC00FB607FCFACFE889F989B0
:10084000808185FFF5CFCE010E94C703F1CFEB8DEC
:10085000EC0FFD2FF11DE35AFF4FF0829FB7F89484
:100860000B8FEA89FB8980818062CFCFCF93DF93A2
:10087000EC01888D8823B9F0AA89BB89E889F989B8
:100880008C9185FD03C0808186FD0DC00FB607FCED
:10089000F7CF8C9185FFF2CF808185FFEDCFCE0120
:1008A0000E94C703E9CFDF91CF910895209196026E
:1008B000309197022817390771F490919402809132
:1008C0009502981741F0E0919402F0E0EC5AFD4F48
:1008D000808190E008958FEF9FEF08950895EF9243
:1008E000FF920F931F93CF93DF93DC015C96ED9003
:1008F000FC905D97E114F10479F481E090E01396A7
:100900009C938E93129790E080E0DF91CF911F919E
:100910000F91FF90EF9008955196ED91FC915297B1
:1009200050968C915097982F90950FB75E962C917A
:100930005E97122F127021FD6095F894208111238B
:1009400019F1282B2083E7012197F1F728E0462FA2
:1009500050E0308160FF1AC0382B3083E7012197C7
:10096000F1F7BA0175956795215089F7112381F048
:100970008081892380830FBF5C968D919C91019724
:10098000F1F781E090E0C1CF2923DCCF3923E5CF17
:100990009081892BEFCF20919602309197022817F2
:1009A000390761F4809195022091940290E0805C77
:1009B0009F4F821B91098F739927089590E080E0E3
:1009C0000895209196023091970228173907B9F4BB
:1009D0009091940280919502981789F0E091940289
:1009E000F0E0EC5AFD4F80812091940230E02F5FBF
:1009F0003F4F2F7333272093940290E008958FEF99
:100A00009FEF0895BF92CF92DF92EF92FF920F93E4
:100A10001F93CF93DF938C01B42E6C018EE0C80E30
:100A2000D11CD0E0C0E0E62EF12CB7010C2E02C0A4
:100A3000759567950A94E2F76170F60181916F01EF
:100A40000E946B012196CB1580F361E0F80185854A
:100A50000E946B0160E0F8018585DF91CF911F91C5
:100A60000F91FF90EF90DF90CF90BF900C946B01AF
:100A7000FC0186898F3F71F021853285662329F03C
:100A8000232B31F461E00C946B0121303105D1F35B
:100A900060E0F9CF0895EF92FF921F93CF93DF9319
:100AA000EC01162F7A0161E0812F0E9499011E8BC3
:100AB000FA86E986E881F9810484F585E02D60E015
:100AC000CE01DF91CF911F91FF90EF9009940F938A
:100AD0001F93CF93DF93EC01162F042F61E0413079
:100AE00009F060E08B850E946B018C858F3F19F0C7
:100AF00060E00E946B01023079F08C8148E084FD57
:100B00000CC0612F70E084E0759567958A95E1F7D8
:100B100044E0CE010E94020544E0612FCE01DF9146
:100B2000CF911F910F910C940205DC01ED91FC9186
:100B30000684F785E02D41E0099581E090E0089575
:100B4000DC01ED91FC910684F785E02D40E00994ED
:100B50000F931F93CF93DF93CDB7DEB728970FB6D0
:100B6000F894DEBF0FBECDBF0091060110910701C2
:100B700020910801309109010D831E832F8338874E
:100B800000910A0110910B0120910C0130910D018F
:100B900009831A832B833C8390916A03691710F0B1
:100BA0006FEF690F262F30E040916B032C0F3D1F34
:100BB000F901403199F4943089F46181680F6068DB
:100BC00083E693E028960FB6F894DEBF0FBECDBF44
:100BD000DF91CF911F910F910C94A0056581EECF0D
:100BE00061E00E94A0058BE39FE10197F1F7089572
:100BF0000F931F93CF93DF93EC01423018F08C8159
:100C000088608C834F836887222329F0413019F450
:100C10008C8184608C8364E670E080E090E00E94C8
:100C2000FA016C8164FD57C0E881F9810684F7857B
:100C3000E02D42E063E0CE0109958BE496E4019754
:100C4000F1F7E881F9810684F785E02D42E063E061
:100C5000CE01099503E512E0C8010197F1F7E8819B
:100C6000F9810684F785E02D42E063E0CE01099525
:100C7000C8010197F1F7E881F9810684F785E02D35
:100C800042E062E0CE010995C8010197F1F76C815D
:100C90006062CE010E94A0058BEE90E00197F1F713
:100CA00084E08D836CE0CE010E94A005CE010E94FD
:100CB000F00582E08E8366E0CE010E94A005E88107
:100CC000F9810484F585E02D6FEFCE01DF91CF919E
:100CD0001F910F9109946062CE010E94A0058BE4E0
:100CE00096E40197F1F76C816062CE010E94A00545
:100CF00003E512E0C8010197F1F76C816062CE0153
:100D00000E94A005C1CF08950895089590E080E065
:100D10000895FB0101900020E9F73197AF01461BD0
:100D2000570BDC01ED91FC910280F381E02D0994D9
:100D30000F931F93CF93DF93EC010E9489068C01E0
:100D400066E471E0CE010E948906800F911FDF9159
:100D5000CF911F910F9108950F931F93CF93DF931E
:100D6000EC010E943B038C0166E471E0CE010E941D
:100D70008906800F911FDF91CF911F910F910895E8
:100D80000E9479140F931F93CF93DF93EC01888116
:100D90009981009759F02A813B812617370730F057
:100DA00081E0DF91CF911F910F9108958B016F5FCB
:100DB0007F4F0E94BC13009759F0998388831B834F
:100DC0000A832C813D81232B59F7FC011082E8CF47
:100DD00080E0E7CFEF92FF920F931F93CF93DF93C3
:100DE0006115710541F480E0DF91CF911F910F9162
:100DF000FF90EF90089541155105B1F07B01EC0192
:100E00000C811D81040F151FB8010E94C2068823A2
:100E100051F3288139818C819D81B701820F931F05
:100E20000E9487141D830C8381E0DECFCF93DF9374
:100E3000EC0188819981009711F00E943313198287
:100E400018821D821C821B821A82DF91CF91089525
:100E5000CF93DF93EC01FB0101900020E9F731977C
:100E6000AF01461B570B0E94EA06811103C0CE0159
:100E70000E941607CE01DF91CF910895CF93DF93A3
:100E8000EC01FB0144815581608171810E94EA0679
:100E9000811103C0CE010E941607CE01DF91CF91D0
:100EA0000895EF92FF920F931F93CF93DF93EC017E
:100EB0007B018A01BA010E94C20681110BC0CE01DA
:100EC0000E941607CE01DF91CF911F910F91FF90E5
:100ED000EF9008951D830C83B701888199810E944A
:100EE0008714F0CFEF92FF920F931F93CF93DF936E
:100EF000CDB7DEB7A1970FB6F894DEBF0FBECDBF5A
:100F00007C01CB01BA01F701118210821382128297
:100F1000158214828E010F5F1F4F22E044E00E9471
:100F20006A0E0097C9F0FC0101900020E9F73197A3
:100F3000AF01481B590BBC01C7010E945107A19684
:100F40000FB6F894DEBF0FBECDBFDF91CF911F91DA
:100F50000F91FF90EF900895C7010E941607EFCF01
:100F6000FB01DC0111961C921E9213961C921E929C
:100F7000129715961C921E9214978617970749F0A0
:100F8000608171816115710521F0448155810C9456
:100F900051070895FC01118210821382128215827A
:100FA0001482FB0101900020E9F73197AF01461B45
:100FB000570B0C945107FC0180819181009711F02F
:100FC0000C94331308951F920F920FB60F921124B1
:100FD0002F933F938F939F93AF93BF9380919D02E5
:100FE00090919E02A0919F02B091A0023091980230
:100FF00023E0230F2D3758F50196A11DB11D209335
:10100000980280939D0290939E02A0939F02B093BA
:10101000A0028091990290919A02A0919B02B091B6
:101020009C020196A11DB11D8093990290939A0292
:10103000A0939B02B0939C02BF91AF919F918F911F
:101040003F912F910F900FBE0F901F90189526E89B
:10105000230F0296A11DB11DD2CF1F920F920FB682
:101060000F9211242F933F934F935F936F937F932E
:101070008F939F93AF93BF93EF93FF9381EA92E097
:101080000E94C703FF91EF91BF91AF919F918F9104
:101090007F916F915F914F913F912F910F900FBE74
:1010A0000F901F9018951F920F920FB60F92112458
:1010B0002F938F939F93EF93FF93E091B102F09161
:1010C000B2028081E091B702F091B80282FD1BC0AC
:1010D00090818091BA028F5F8F732091BB0282173B
:1010E00041F0E091BA02F0E0EF55FD4F958F80930B
:1010F000BA02FF91EF919F918F912F910F900FBEA8
:101100000F901F9018958081F4CF1F920F920FB609
:101110000F9211242F933F934F935F936F937F937D
:101120008F939F93AF93BF93EF93FF93E0919602BA
:10113000F0919702309749F0A685B7858585968D01
:1011400091FF14C09C918923A1F4FF91EF91BF916D
:10115000AF919F918F917F916F915F914F913F914F
:101160002F910F900FBE0F901F9018959C9189237F
:1011700061F7A389B4899C918589809589238C9393
:10118000868997890197F1F7608D718DA685B7855E
:10119000558538E020E0CB010197F1F7822F90E0F0
:1011A00095958795282F4C91452309F0206831505B
:1011B00091F7868D81FD20958091950290E00196B2
:1011C0008F73992730919402381799F0A091950266
:1011D000B0E0AC5ABD4F2C9380939502828D938DD5
:1011E0000197F1F7A389B4898C919589892B8C9308
:1011F000ACCF868D8160868FF1CF0F931F93CF93F5
:10120000DF931092A4021092A30288EE93E0A0E074
:10121000B0E08093A5029093A602A093A702B0939A
:10122000A80282E191E09093A2028093A10285EC52
:1012300090E09093AE028093AD0284EC90E09093A6
:10124000B0028093AF0280EC90E09093B202809362
:10125000B10281EC90E09093B4028093B30282ECEF
:1012600090E09093B6028093B50286EC90E0909364
:10127000B8028093B7021092BA021092BB02109289
:10128000BC021092BD0282E080937F038BE08093CA
:101290008003EAEAF1E0E491E0938103E6E9F1E01A
:1012A000E491E093820380E89EE3A0E0B0E08093C5
:1012B000870390938803A0938903B0938A031092C5
:1012C00066031092650386E391E090936403809334
:1012D000630383E180936E038FEF80936F0382E15A
:1012E0008093700381E18093710380E180937203A6
:1012F0008FE0809373038EE08093740310927503E4
:10130000109276031092770310927803C1E7D3E02E
:1013100005E713E061E089910E9499010C171D0710
:10132000C9F761E080916E030E94990180916F037B
:101330008F3F19F061E00E94990161E08091700394
:101340000E9499011092670360E080916E030E94F1
:101350006B0160E0809170030E946B0180916F03CC
:101360008F3F19F060E00E946B018FEF809379034B
:1013700010926D0310926C03109247031092460373
:1013800088EE93E0A0E0B0E0809348039093490397
:10139000A0934A03B0934B0384E291E090934503FA
:1013A0008093440310925B0310925A0310925D03E2
:1013B00010925C0310925F0310925E03109261031F
:1013C00010926003609162036E7F6D7F6093620391
:1013D0006695617081E068278CE00E946B0161E096
:1013E0008CE00E949901E4EBF1E0E491E093540376
:1013F000E0EAF1E0E491F0E0EE0FFF1FE657FE4F68
:1014000085919491909356038093550360E08DE00D
:101410000E9499018091620381FD04C061E08DE02A
:101420000E946B018DE080935003E5EBF1E0E491C5
:10143000E0935103E1EAF1E0E491F0E0EE0FFF1FE9
:10144000E058FE4F859194919093530380935203FB
:1014500069E471E08EE393E0DF91CF911F910F91EA
:101460000C94CA07CF93DF93CDB7DEB768970FB65A
:10147000F894DEBF0FBECDBF789484B5826084BD82
:1014800084B5816084BD85B5826085BD85B5816088
:1014900085BD80916E00816080936E001092810006
:1014A00080918100826080938100809181008160C1
:1014B0008093810080918000816080938000809182
:1014C000B10084608093B1008091B000816080930E
:1014D000B00080917A00846080937A0080917A00D5
:1014E000826080937A0080917A00816080937A0094
:1014F00080917A00806880937A001092C10062E047
:1015000080917F030E9499012FB7F89480919D02EA
:1015100090919E02A0919F02B091A0022FBF805D8A
:101520009740A109B1098093830390938403A0930A
:101530008503B093860387E380938C0320E042E029
:1015400060E183E693E00E94F8056FEF83E693E0A5
:101550000E94380560E083E00E94990161E084E028
:101560000E94990161E085E00E94990161E086E0B6
:101570000E94990161E087E00E949901E091B10227
:10158000F091B20282E08083E091AD02F091AE0270
:101590001082E091AF02F091B0028FEC8083109244
:1015A000B902E091B502F091B60286E08083E09145
:1015B000B302F091B402808180618083E091B30234
:1015C000F091B402808188608083E091B302F09151
:1015D000B402808180688083E091B302F091B4020C
:1015E00080818F7D808310925F0310925E03109242
:1015F0005D0310925C0310925B0310925A038DE915
:1016000091E0909361038093600390915003963131
:1016100008F047C02DEB30E030935B0320935A0372
:101620002BE931E030935D0320935C032CE231E041
:1016300030935F0320935E032091680084E098302C
:1016400048F031E09E3008F430E081E001C0880FBE
:101650003A95EAF7822B809368002DE630E09830C7
:1016600050F02BE630E09E3030F02CE630E0963142
:1016700010F030E020E03093580320935703292FD7
:1016800030E0983008F0DDC081E001C0880F9A9505
:10169000EAF7809359038091600390916103019769
:1016A000F1F780915E0390915F03892B49F1E091FE
:1016B0009602F091970283E0E434F80709F130973D
:1016C00039F0A389B4899C918589809589238C936D
:1016D000809162038E7F8093620310929502109234
:1016E000940284E493E09093970280939602E091B1
:1016F0005703F0915803808190915903892B80837F
:1017000060E081E00E94A80567E571E083E693E070
:101710000E94890661E085E00E94A80565E671E007
:1017200083E693E00E94890668EE73E080E090E033
:101730000E94FA016EE671E0CE0107960E94CA0788
:101740006EE373E0CE010D960E94B0076CE771E086
:1017500084E493E00E94980664EF71E080E090E0FA
:101760000E94FA016FE771E084E493E00E9498061A
:1017700064EF71E080E090E00E94FA0169E871E0B6
:10178000CE0101960E94CA07BE01635F7F4FCE0162
:1017900001960E943E0762E971E00E942807BC01A1
:1017A00084E493E00E94AC06CE0101960E94DB0720
:1017B00064EF71E080E090E00E94FA01BE01695F91
:1017C0007F4F84E493E00E943B0364EF71E080E08C
:1017D00090E00E94FA016AE184E493E00E946F04C1
:1017E00068E873E180E090E00E94FA01CE010D9676
:1017F0000E94DB07CE0107960E94DB074BEA242EEE
:1018000041E0342E57E9A52E51E0B52E60E0862E3A
:1018100060E0962E83E693E00E94F0050E942C0281
:10182000882341F0809180038C3009F46FC0B0F4BC
:101830008B3069F1C12CD12C20ECE22E2FE7F22E57
:1018400050C09E3040F42850310981E001C0880F1B
:101850002A95EAF71ECF2E503109F7CF85518230F5
:1018600048F710917C03612F70E0762F662766277A
:101870007F7780917D03682B90E080E00E94C41008
:101880002DEC3CEC4CEC5DE30E9425115BC06091BB
:101890007C0370E090E080E00E94C4106B017C014A
:1018A00010917D0317FF0AC0AC019B0160E070E05E
:1018B00080E89FEB0E9420126B017C011F70612F5A
:1018C00070E090E080E00E94C6102DEC3CEC4CEC07
:1018D0005DE30E942511A70196010E9421126B0170
:1018E0007C010E942C02882351F0809180038B3070
:1018F00030F08D3080F18551823008F49DC0412C4C
:10190000512C90EC692E9FE7792E43C010917C03F7
:10191000612F70E090E080E00E94C4106B017C01B8
:1019200060917D036F7070E090E080E00E94C610CF
:101930002DEC3CEC4CEC5DE30E942511A7019601D7
:101940000E9421126B017C0117FFCBCFF7FAF094B4
:10195000F7F8F094C6CF60917B0370E090E080E0F0
:101960000E94C6102DEC3CEC4CEC5DE30E9425116E
:101970002B013C0160917A0370E090E080E00E94CE
:10198000C6109B01AC01C301B2010E9421122B01C0
:101990003C01EFE6F1E08491F1010491F50114912D
:1019A000112309F45BC081110E944201E12FF0E094
:1019B000EE0FFF1FE058FE4FA591B4918C910823C4
:1019C00091E080E009F490E0092F182F60E080E0BA
:1019D0000E94A805A7019601C701B6010E949212B4
:1019E000811108C0A3019201C301B2010E949212A9
:1019F0008823B9F164E971E081EA92E00E949806D7
:101A000069EA71E083E693E00E94890661E084E080
:101A10000E946B016EEE72E080E090E00E94FA019D
:101A20008114910409F4F6CE0E94B303882309F4CB
:101A3000F1CE0E940000EECE60917A0370917B039C
:101A400076276727762790E080E00E94C4102DEC6F
:101A50003CEC4CEC5DE30E94251199CF10E000E0D6
:101A6000B5CFB801012E000C880B990B0E94C6104F
:101A70009B01AC010E949212882349F06AEB71E04D
:101A800081EA92E00E9498066EEC71E0BBCF60E0C4
:101A900084E00E946B0160E080E00E94A805B7012D
:101AA000A601CE0101960E9472076FED71E0CE0192
:101AB00007960E94CA07BE016F5F7F4FCE0107964F
:101AC0000E943E0766EE71E00E942807BC01CE012D
:101AD00043960E94B007CE0107960E94DB07CE0115
:101AE00001960E94DB07BE016D5E7F4F83E693E0A7
:101AF0000E943B0320E030E040EF51E4C701B60113
:101B00000E948D12181654F020E030E040E251E4BB
:101B1000C701B6010E94BF1087FFAAC061E085E03F
:101B20000E946B016AEE71E0CE0101960E94CA0725
:101B3000BE016D5E7F4FCE0101960E943E07BC0143
:101B400081EA92E00E94AC06CE0101960E94DB077A
:101B500061E080E00E94A805B301A201CE010196D8
:101B60000E94720765E072E0CE0107960E94CA07E4
:101B7000BE016F5F7F4FCE0107960E943E076DE06A
:101B800072E00E942807BC01CE010D960E94B007AA
:101B9000CE0107960E94DB07CE0101960E94DB076B
:101BA000BE01635F7F4F83E693E00E943B0320E02A
:101BB00030E040E752E4C301B2010E948D121816D2
:101BC00054F020E030E040E252E4C301B2010E9450
:101BD000BF1087FF52C061E086E00E946B016FE09A
:101BE00072E0CE0101960E94CA07BE01635F7F4F7B
:101BF000CE0101960E943E07BC0181EA92E00E945C
:101C0000AC06CE0101960E94DB07CE010D960E9424
:101C1000DB07CE0143960E94DB076CED75E080E0A8
:101C200090E00E94FA0183E693E00E94F00560E0F4
:101C300080E00E94A805012B29F167E272E081EAA9
:101C400092E00E94980668E372E083E693E00E94C7
:101C5000890661E087E00E946B016CED75E080E031
:101C600090E00E94FA0183E693E00E94F005D2CE54
:101C700060E085E00E946B016BCF60E086E00E942F
:101C80006B01C3CF68E472E083E693E00E948906AB
:101C900060E0E0CF8EE393E00E94DB0784E291E016
:101CA000909345038093440380919602909197020C
:101CB0008454934071F4E0915703F091580390815C
:101CC0008091590380958923808310929702109206
:101CD00096020895EF920F931F93CF93DF93E8013D
:101CE00034E047FD34E1042E000C550B57FF03C0D0
:101CF000519541955109E32E022F242FAE010E94E8
:101D0000880ECE01DF91CF911F910F91EF90089532
:101D1000A9E0B0E0EEE8FEE00C94E9116A01F22ED1
:101D2000B02E102FFBE3AF2EA01608F41BE31F5FAD
:101D3000012F27E0AE014F5F5F4F0E94E70FBC010C
:101D40008981982F9970913009F43FC09BE2E1FCA2
:101D500004C09E2D9170E0FC3AC05E2D5071E82FBA
:101D6000E87083FF46C084E0911101C083E0EF2D4D
:101D7000E81B8F1508F0E0E0D6018E2F20E25523F6
:101D800051F1992329F0D6019C93C60101966C016B
:101D900096012D5F3F4FE2FE24C08EE4D6018C9366
:101DA00091E411969C93119712968C93D9018E2FE2
:101DB00090E281111BC0E20FF32FF11D10828EEF14
:101DC0009FEF2996ECE00C9405129DE2C6CF90E2BD
:101DD000C4CF2D9381508111FCCFCE0ED11CE0E0F9
:101DE000D0CF8EE6D6018C9391E6DBCF9D938150C8
:101DF000E0CF482F447082FF3DC084E0911101C0C4
:101E000083E08F1510F4EF2DE81BD6018E2F20E212
:101E1000552309F1992329F0D6019C93C601019617
:101E20006C0196012D5F3F4FE2FE1BC089E4D60195
:101E30008C938EE411968C93119786E412968C9372
:101E4000D9018E2F90E2882309F4B5CF9D9381505C
:101E5000FACF2D9381508111FCCFCE0ED11CE0E042
:101E6000D9CF89E6D6018C938EE611968C93119783
:101E700086E6E4CF9B0177FF02C030E020E0A1E0DE
:101E8000B0E0911102C0B0E0A0E0F9013196AE0FD0
:101E9000BF1F8B2C912CBB2009F461C05401EFEFC4
:101EA000AE1ABE0AAA0DBB1DFA161B0619F014F0D5
:101EB0004F2D4A1B511188C0E3FC59C07601A42F55
:101EC000B0E2A1114FC0C40ED11C992309F45BC02C
:101ED00040E0D6011196F60190836D01552309F477
:101EE00048C0012F060F9A81582F507184FF03C0FC
:101EF000913309F4015010160CF047C0093008F076
:101F000008E0EEE2FE2E5B01A01AB1088501919473
:101F1000819491082F3F320729F4D601FC92F601F3
:101F200031966F016217730794F1021713077CF55E
:101F3000DB01A21BB30BAA24A394B12CAC0EBD1ED3
:101F4000AA0DBB1D11968C9121503109D601119615
:101F500028153905F4F0F60180836D01DBCFB12C33
:101F6000A12CA0CFF701B1937F01A150AACF91116D
:101F7000B0CFD601942F50E302C05D9391509111E0
:101F8000FCCFC40ED11C40E0ACCF01E0BACF80E35F
:101F9000DBCF6217730731F4963388F4953311F46D
:101FA000552369F0F6018083FD01842F90E28111B1
:101FB00008C0A40FB11D1C9290E080E002CF81E325
:101FC000F1CF91938150F3CF911183CF8ACF2830F5
:101FD00008F027E03327DA01990F311D87FD916062
:101FE00000966105710539F432602E5F3D9330E350
:101FF0002A95E1F708959F3F30F08038710561051B
:1020000009F03C5F3C5F3D93913008F08068911D82
:10201000DF93CF931F930F93FF92EF92192F987F27
:102020009695E92F96959695E90FFF27EE53FF4F6A
:1020300099273327EE24FF24A701E7010590089490
:10204000079428F4360FE71EF81E491F511D660F2E
:10205000771F881F991F0694A1F70590079428F40D
:10206000E70EF81E491F561FC11D770F881F991FC5
:10207000661F0694A1F70590079428F4F80E491FEF
:10208000561FC71FD11D880F991F661F771F069403
:10209000A1F70590079420F4490F561FC71FD81FBA
:1020A000990F661F771F881F0694A9F784911095D2
:1020B000177041F0D695C79557954795F794E794D3
:1020C0001A95C1F7E8E6F0E06894159015913591FE
:1020D0006591959105907FE27395E118F10A430BA4
:1020E000560BC90BD009C0F7E10CF11E431F561F58
:1020F000C91FD01D7EF4703311F48A95E6CFE894A1
:10210000015030F0080F0AF40027021708F4202FBE
:102110002395022F7A3328F079E37D932A95E9F706
:1021200010C07D932A9589F6069497956795379503
:1021300017951794E118F10A430B560BC90BD009F8
:1021400098F023957E9173957A3308F070E37C9331
:102150002013B8F77E9170617D9330F0839571E321
:102160007D9370E32A95E1F71124EF90FF900F9192
:102170001F91CF91DF91992787FD909508950E9437
:10218000011108F481E00895E89409C097FB3EF43A
:1021900090958095709561957F4F8F4F9F4F9923B4
:1021A000A9F0F92F96E9BB279395F6958795779532
:1021B0006795B795F111F8CFFAF4BB0F11F460FFF2
:1021C0001BC06F5F7F4F8F4F9F4F16C0882311F04A
:1021D00096E911C0772321F09EE8872F762F05C05E
:1021E000662371F096E8862F70E060E02AF09A95F9
:1021F000660F771F881FDAF7880F9695879597F9EE
:102200000895990F0008550FAA0BE0E8FEEF161687
:102210001706E807F907C0F012161306E407F507DA
:1022200098F0621B730B840B950B39F40A2661F04E
:10223000232B242B252B21F408950A2609F4A140F1
:10224000A6958FEF811D811D08950E9438110C9471
:10225000A9110E949B1138F00E94A21120F0952331
:1022600011F00C9492110C94981111240C94DD111E
:102270000E94BA1170F3959FC1F3950F50E0551F5E
:10228000629FF001729FBB27F00DB11D639FAA27CB
:10229000F00DB11DAA1F649F6627B00DA11D661F1A
:1022A000829F2227B00DA11D621F739FB00DA11D3B
:1022B000621F839FA00D611D221F749F3327A00DF5
:1022C000611D231F849F600D211D822F762F6A2F91
:1022D00011249F5750409AF0F1F088234AF0EE0FF6
:1022E000FF1FBB1F661F771F881F91505040A9F723
:1022F0009E3F510580F00C9492110C94DD115F3FCC
:10230000E4F3983ED4F3869577956795B795F7955E
:10231000E7959F5FC1F7FE2B880F911D96958795D6
:1023200097F9089597F99F6780E870E060E0089555
:102330009FEF80EC089500240A94161617061806DD
:102340000906089500240A941216130614060506B9
:102350000895092E0394000C11F4882352F0BB0F4A
:1023600040F4BF2B11F460FF04C06F5F7F4F8F4FAD
:102370009F4F089557FD9058440F551F59F05F3FE8
:1023800071F04795880F97FB991F61F09F3F79F097
:1023900087950895121613061406551FF2CF469519
:1023A000F1DF08C0161617061806991FF1CF86959B
:1023B0007105610508940895E894BB27662777277F
:1023C000CB0197F908952F923F924F925F926F92AF
:1023D0007F928F929F92AF92BF92CF92DF92EF92B5
:1023E000FF920F931F93CF93DF93CDB7DEB7CA1B36
:1023F000DB0B0FB6F894DEBF0FBECDBF09942A8861
:10240000398848885F846E847D848C849B84AA8408
:10241000B984C884DF80EE80FD800C811B81AA8195
:10242000B981CE0FD11D0FB6F894DEBF0FBECDBF60
:10243000ED010895EE0FFF1F0590F491E02D099432
:102440005058BB27AA270E9438120C94A9110E9449
:102450009B1138F00E94A21120F039F49F3F19F42B
:1024600026F40C9498110EF4E095E7FB0C9492116D
:10247000E92F0E94BA1158F3BA176207730784074D
:10248000950720F079F4A6F50C94DC110EF4E09594
:102490000B2EBA2FA02D0B01B90190010C01CA011E
:1024A000A0011124FF27591B99F0593F50F4503EC9
:1024B00068F11A16F040A22F232F342F4427585FBB
:1024C000F3CF469537952795A795F0405395C9F7D3
:1024D0007EF41F16BA0B620B730B840BBAF091508B
:1024E000A1F0FF0FBB1F661F771F881FC2F70EC02A
:1024F000BA0F621F731F841F48F4879577956795FD
:10250000B795F7959E3F08F0B0CF9395880F08F0E8
:102510009927EE0F9795879508950E94011108F469
:102520008FEF08950E940111880B990B08950F9366
:102530001F93CF93DF938230910510F482E090E0F7
:10254000E0918F03F091900330E020E0B0E0A0E054
:10255000309799F42115310509F44AC0281B390B2D
:1025600024303105D8F58A819B816115710589F187
:10257000FB0193838283FE0111C04081518102815E
:10258000138148175907E0F04817590799F4109735
:1025900061F012960C93129713961C933296CF010A
:1025A000DF91CF911F910F91089500938F031093A6
:1025B0009003F4CF2115310551F04217530738F03D
:1025C000A901DB019A01BD01DF01F801C1CFEF01D3
:1025D000F9CF9093900380938F03CDCFFE01E20F4C
:1025E000F31F819391932250310939832883D7CFE8
:1025F00020918D0330918E03232B41F42091020111
:102600003091030130938E0320938D0320910001BC
:10261000309101012115310541F42DB73EB74091AC
:10262000040150910501241B350BE0918D03F091BD
:102630008E03E217F307A0F42E1B3F0B2817390770
:1026400078F0AC014E5F5F4F2417350748F04E0F0E
:102650005F1F50938E0340938D03819391939FCF7F
:10266000F0E0E0E09CCFCF93DF930097E9F0FC012E
:10267000329713821282A0918F03B0919003ED01E3
:1026800030E020E01097A1F420813181820F931F68
:1026900020918D0330918E032817390709F061C00E
:1026A000F0938E03E0938D03DF91CF910895EA01BB
:1026B000CE17DF07E8F54A815B819E014115510580
:1026C000B1F7E901FB83EA8349915991C40FD51F02
:1026D000EC17FD0761F4808191810296840F951FAC
:1026E000E90199838883828193819B838A83F0E0C7
:1026F000E0E012968D919C9113970097B9F52D917A
:102700003C911197CD010296820F931F20918D036A
:1027100030918E032817390739F6309751F510920A
:10272000900310928F03B0938E03A0938D03BCCFC0
:10273000D383C28340815181840F951FC817D90765
:1027400061F44E5F5F4F88819981480F591F518313
:1027500040838A819B81938382832115310509F00F
:10276000B0CFF0939003E0938F039ECFFD01DC0187
:10277000C0CF13821282D7CFB0E0A0E0E2ECF3E149
:102780000C94E5118C01009751F4CB010E94971233
:102790008C01C801CDB7DEB7E0E10C940112FC0159
:1027A000E60FF71F9C0122503109E217F30708F4E6
:1027B0009DC0D901CD91DC911197C617D70798F02C
:1027C000C530D10530F3CE0104978617970708F37B
:1027D000C61BD70B2297C193D1936D937C93CF01E6
:1027E0000E943313D6CF5B01AC1ABD0A4C018C0E8C
:1027F0009D1EA0918F03B0919003512C412CF12C80
:10280000E12C109731F580918D0390918E038815FE
:10281000990509F05CC04616570608F058C080912B
:10282000000190910101009741F48DB79EB740914E
:10283000040150910501841B950BE817F90708F076
:1028400055C0F0938E03E0938D03F901718360838B
:10285000A0CF8D919C91119712966C901297139620
:102860007C901397A815B90559F56C0142E0C40E88
:10287000D11CCA14DB0420F1AC014A195B09DA014E
:102880001296159780F06282738251834083D9013A
:102890006D937C93E114F10471F0D7011396FC93CE
:1028A000EE93129776CF22968C0F9D1FF90191839C
:1028B0008083F301EFCFF0939003E0938F0369CF10
:1028C0004816590608F42C017D01D3019ACFCB019B
:1028D0000E9497127C01009749F0AE01B8010E9456
:1028E0007E14C8010E943313870153CF10E000E02B
:1028F00050CF81E090E0F8940C948E14FB01DC0141
:1029000002C001900D9241505040D8F70895FB014C
:10291000DC0101900D920020E1F7089510E0CFED69
:10292000D0E004C0FE010E941A122196C03ED107D9
:06293000C9F7F894FFCF87
:102936000000910380000040145400401050000035
:102946000000E903490376033604A70385039903C8
:10295600000000006F04490386066E04CB04E10400
:102966005604000000009505490386068506F8050D
:102976004B05380567050D0A002B323535373733D9
:1029860034323233383100477261696E2053746FC6
:1029960072616765004D6F6E69746F7221005465D0
:1029A600737420666F7220534D53210041540041C9
:1029B600542B434D47463D310041542B434D47531D
:1029C6003D3122004448542073656E736F72206156
:1029D60074206661756C7421004E6F204448542043
:1029E60072656164696E6773210050495220736590
:1029F6006E736F72206174206661756C74004E6F21
:102A06002050495220646574656374696F6E005482
:102A1600656D703A2000C2B0430054656D706572F2
:102A26006174757265206F7574206F662072616EB1
:102A360067652C200048756D69643A2000250048BA
:102A4600756D6964697479206F7574206F6620727C
:102A5600616E67652C20004D6F74696F6E2064652A
:102A66007465637465642100526F64656E742070CA
:102A7600726573656E7421004E6F206D6F74696F99
:042A86006E210000BD
:00000001FF
